:020000040800F2
:100000003807002029020008CF030008C7030008B2
:10001000CB030008D10200085F08000800000000C0
:1000200000000000000000000000000015040008AF
:10003000D502000800000000D10300082D050008CB
:10004000430200084302000843020008430200087C
:10005000430200084302000843020008430200086C
:10006000430200084302000843020008430200085C
:10007000430200084302000843020008430200084C
:10008000430200084302000843020008430200083C
:10009000430200084302000843020008430200082C
:1000A000430200084302000843020008430200081C
:1000B000430200084302000843020008430200080C
:1000C00043020008430200084302000843020008FC
:1000D00043020008790700084302000843020008B1
:1000E00043020008430200084302000843020008DC
:1000F00043020008430200084302000843020008CC
:1001000043020008430200084302000843020008BB
:1001100043020008430200084302000843020008AB
:10012000430200084302000843020008430200089B
:10013000430200084302000843020008430200088B
:10014000430200084302000843020008430200087B
:10015000430200084302000843020008430200086B
:10016000430200084302000843020008430200085B
:10017000430200084302000843020008430200084B
:10018000430200084302000800F002F800F03CF8C7
:100190000AA090E8000C82448344AAF10107DA45E2
:1001A00001D100F031F8AFF2090EBAE80F0013F0F8
:1001B000010F18BFFB1A43F0010318475C0A000047
:1001C0007C0A0000103A24BF78C878C1FAD85207D8
:1001D00024BF30C830C144BF04680C6070470000C1
:1001E0000023002400250026103A28BF78C1FBD840
:1001F000520728BF30C148BF0B6070471FB500F0E1
:1002000005FD1FBD10B510BD00F033F81146FFF716
:10021000F5FF00F0EFFB00F051F803B4FFF7F2FF39
:1002200003BC00F01EFB0000094880470948004756
:10023000FEE7FEE7FEE7FEE7FEE7FEE7FEE7FEE796
:10024000FEE7FEE704480549054A064B70470000F3
:100250003105000889010008380100203807002016
:1002600038030020380300207047704770477047FC
:100270007047754600F028F8AE46050069465346BB
:1002800020F00700854618B020B5FFF7DBFFBDE87A
:1002900020404FF000064FF000074FF000084FF0ED
:1002A000000B21F00701AC46ACE8C009ACE8C0097E
:1002B000ACE8C009ACE8C0098D4670470446AFF30E
:1002C00000802046FFF7A9FF00487047D4000020B7
:1002D00000BFFEE77047F0B50A4600210023002466
:1002E00000BF3DE0012505FA01F3156805EA0304A6
:1002F0009C4234D105684F000326BE40B5430560DB
:1003000015794E00B5400668354305601579012D15
:1003100002D01579022D16D185684F000326BE4004
:10032000B543856055794E00B54086683543856094
:10033000456801268E40B5434560456896798E40F4
:10034000B6B235434560C5684F000326BE40B5438D
:10035000C560D5794E00B540C6683543C560491CB7
:100360001029BFD3F0BDF0B5002300244D07ED0EDA
:1003700002FA05F3CE1000F1200555F826504E077D
:10038000F70E0F26BE40B543CF1000F1200646F809
:100390002750CE1000F1200555F8265045EA0304F9
:1003A000CE1000F1200545F82640F0BD02460020A1
:1003B00013690B400BB1012000E00020704741831E
:1003C00070470183704700BFFEE700BFFEE770473C
:1003D0007047000029B1064A12680243044B1A60B4
:1003E00004E0034A12688243014B1A607047000020
:1003F0003038024029B1064A12680243044B1A60A1
:1004000004E0034A12688243014B1A6070470000FF
:1004100040380240704700000CB500200190009069
:100420003448006840F480303249086000BF3148E9
:10043000006800F4003000900198401C0190009882
:1004400018B90198B0F5A04FF1D12A48006800F41E
:10045000003010B10120009001E0002000900098D1
:10046000012846D123484030006840F0805021499F
:10047000403108602048006840F440401E49086050
:100480001C48083000681B490831086008460068AD
:1004900040F4004008600846006840F4A05008603E
:1004A0001648091F0860081F006840F08070091F87
:1004B000086000BF0F48006800F000700028F9D005
:1004C00040F205700E4908600A480830006820F0C4
:1004D00003000849083108600846006840F002003F
:1004E000086000BF03480830006800F00C000828CE
:1004F000F8D10CBD0038024000700040085440079D
:10050000003C0240042808D14FF0E021096941F085
:1005100004014FF0E022116107E04FF0E02109698A
:1005200021F004014FF0E022116170477047000094
:1005300010B51548006840F470001349086013486E
:10054000006840F001001149086000200F4908319F
:1005500008600E4800680E4908400C4908600D48C4
:10056000091D0860081F006820F48020091F08602A
:10057000002006490C310860FFF74EFF4FF0006085
:1005800001498039086010BD88ED00E00038024064
:10059000FFFFF6FE1030002421B1028842F08002F5
:1005A000028004E002884FF67F731A400280704791
:1005B00021B1028842F00102028004E002884FF675
:1005C000FE731A400280704770B500240022002399
:1005D000058C4FF6FE7635400584028C8388048BAB
:1005E0004FF68F752C40B51E2C400D882C43751E80
:1005F0002A408D892A434D882A43104DA84202D0B3
:100600000F4DA84213D14FF6F7752A40CD892A43E2
:100610004FF6FB752A408D882A434FF6FF652B4025
:100620004FF6FF552B400D8A2B434D8A2B43838079
:1006300004838D684563028470BD000000000140A2
:10064000000401400A460021018B4FF6F773194060
:100650001143018370474163704700000022028804
:10066000184B98420ED0184B98420BD0B0F1804FE7
:1006700008D0164B984205D0154B984202D0154B26
:10068000984204D14FF68F731A404B881A43124B8D
:10069000984207D0114B984204D04FF6FF431A40BE
:1006A0000B891A4302804B68C3620B880385054B94
:1006B000984202D0044B984201D18B7A03860123E1
:1006C00083827047000001400004014000040040A4
:1006D00000080040000C00400010004000140040E2
:1006E00070B504460D4610210F48FFF768FE4FF421
:1006F00080610D48FFF765FE00260EE004210A48E0
:10070000FFF75FFE284600F0E9F804210648FFF7EE
:1007100056FE284600F0E2F8761CA642EEDB1021D9
:100720000148FFF74EFE70BD0014024070B504464C
:100730000D4610210F48FFF742FE4FF480610D482F
:10074000FFF73DFE00260EE004210A48FFF739FEC0
:10075000284600F0C3F804210648FFF730FE28467B
:1007600000F0BCF8761CA642EEDB10210148FFF732
:1007700028FE70BD0014024010B540F225511D48FE
:1007800000F03EF810B31B4800F064F8C4B21A48F9
:10079000008800F40040C8B91748008800F4804081
:1007A00060B10A2C03D000201349088020E01248D1
:1007B000008840F400401049088019E00D2C06D153
:1007C0000D48008840F480400B49088010E00A483A
:1007D0000088C0F30D0009490C5407480088401CEC
:1007E0000549088008460088C72801DD00200880E8
:1007F00010BD000000100140080000200C00002087
:1008000070B50246002400230025002040F66A1639
:10081000B14200D100BFC1F3421501F01F03012610
:1008200006FA03F3012D02D19689334006E0022D2A
:1008300002D1168A334001E0968A33400C12012619
:1008400006FA04F41688344013B10CB1012000E01C
:10085000002070BD01468888C0F30800704700BFC3
:10086000FEE7014600BF704710B504466FF0040074
:10087000FFF748FEE11704EB5171C1F3C701074AC6
:1008800011701046007800EB4001C1EBC0104FF62C
:10089000FF7101EAC0000249088010BD000000207D
:1008A0000200002070B504464FF4077094FBF0F08E
:1008B000C6B24FF4077094FBF0F100FB114085B213
:1008C00005E04FF4077000F02FF8701EC6B2002E3E
:1008D000F7D115B1284600F027F870BD0146114A3E
:1008E00012784A434FF0E0235A6100229A611A4677
:1008F000126942F001021A6100BF4FF0E022106954
:1009000000F001021AB100F48032002AF5D04FF055
:10091000E022126922F001024FF0E0231A61002266
:100920009A617047000000200146114A12884A432C
:100930004FF0E0235A6100229A611A46126942F090
:1009400001021A6100BF4FF0E022106900F00102BD
:100950001AB100F48032002AF5D04FF0E02212697B
:1009600022F001024FF0E0231A6100229A617047E1
:100970000200002010B54FF400411148FFF716FDAA
:10098000012800D110BD4FF480510D48FFF70EFD36
:10099000012801D10220F5E74FF400510848FFF784
:1009A00005FD012801D10320ECE74FF48041044804
:1009B000FFF7FCFC012801D10420E3E700BFE1E7D9
:1009C0000014024010B54FF480510948FFF7F7FCBE
:1009D0004FF400510648FFF7F2FC4FF48041044801
:1009E000FFF7EDFC4FF400410148FFF7E8FC10BDB4
:1009F000001402400024A820FFF736FF532144F6DC
:100A0000206000F095F8FFF7DDFF10214648FFF762
:100A1000D8FC87E004E0FFF7ADFF84B204B100E04A
:100A2000F9E700BF012C06D0022C18D0032C36D0D9
:100A3000042C75D153E044F27C713C48FFF70BFE67
:100A400040F2DC50FFF72EFF44F611113748FFF754
:100A500002FE4FF4FA60FFF725FF002461E04FF437
:100A600016714FF44870FFF73BFE44F27C712F483B
:100A7000FFF7F1FD4FF49660FFF714FF4FF4167186
:100A80004FF44870FFF752FE44F611112748FFF764
:100A9000E2FD4FF4FA60FFF705FF002441E04FF458
:100AA00016714FF4C860FFF71BFE44F27C711F48BB
:100AB000FFF7D1FD40F2DC50FFF7F4FE4FF4167162
:100AC0004FF4C860FFF732FE44F611111748FFF7E4
:100AD000C2FD4FF4FA60FFF7E5FE002421E04FF479
:100AE00016714FF44870FFF721FE44F27C710F48F5
:100AF000FFF7B1FD40F2DC50FFF7D4FE4FF4167162
:100B00004FF44870FFF7ECFD44F611110748FFF76A
:100B1000A2FD4FF4FA60FFF7C5FE002401E0FFE7F5
:100B200000BF00BF76E70000001402400020004034
:100B300030B58BB004460D4601212020FFF74AFC5A
:100B400001210802FFF756FC092211462D48FFF744
:100B50000AFC40F21440099001208DF82800002082
:100B60008DF82A0003208DF8290009A92548FFF7F0
:100B7000B2FB4FF20200099000208DF828000220FD
:100B80008DF82B0009A91F48FFF7A5FB4FF4007053
:100B9000099002208DF8280003208DF829000020FC
:100BA0008DF82A0001208DF82B0009A91548FFF7C0
:100BB00092FBA8B2ADF818000020ADF81A00079417
:100BC000ADF8200006A91048FFF748FD6020ADF8F9
:100BD00004000120ADF806000220ADF8100001A9C4
:100BE0000948FFF7F1FC08210748FFF72BFD012119
:100BF0000548FFF7D1FC01210348FFF7D9FC0BB0F2
:100C000030BD000000140240002000404FF0407052
:100C1000E1EE100A70470000380C000800000020C8
:100C20000C000000C4010008440C00080C00002067
:100C30002C070000E0010008000000000000000098
:040C400000000000B0
:040000050800018965
:00000001FF
