:020000040800F2
:10000000C0C7012091730008FD030008FF0300082A
:1000100001040008030400080504000800000000B3
:1000200000000000000000000000000007040008BD
:1000300009040008000000000B0400080D0400087B
:10004000AB730008AB730008AB730008AB73000818
:10005000AB730008AB730008B7DA00081BDB0008BD
:1000600081DB0008E7DB0008AB730008AB73000816
:10007000AB730008AB730008CD6C0008A76C0008D8
:10008000AB730008AB730008AB730008AB730008D8
:10009000AB730008AB730008AB730008AB730008C8
:1000A000AB730008AB730008AB730008AB730008B8
:1000B000AB73000801710008A39D0008AB73000832
:1000C000AB730008AB730008AB730008AB73000898
:1000D000AB73000829730008AB730008AB7300080A
:1000E000AB730008AB730008AB730008AB73000878
:1000F000AB730008AB730008AB730008AB73000868
:10010000AB730008EB660008AB730008AB73000824
:10011000AB730008AB7300082B710008AB730008C9
:10012000AB730008AB730008AB730008AB73000837
:10013000AB730008AB730008AB730008AB73000827
:10014000AB730008AB730008AB730008AB73000817
:10015000AB730008AB730008AB730008AB73000807
:10016000AB730008AB730008AB730008AB730008F7
:10017000AB730008AB730008AB730008AB730008E7
:10018000AB730008AB73000800F002F800F06DF8E4
:100190000AA090E8000C82448344AAF10107DA45E2
:1001A00001D100F062F8AFF2090EBAE80F0013F0C7
:1001B000010F18BFFB1A43F0010318473C0501006B
:1001C0005C0501000A444FF0000C10F8013B13F0ED
:1001D000070408BF10F8014B1D1108BF10F8015BA0
:1001E000641E05D010F8016B641E01F8016BF9D193
:1001F00013F0080F1EBF10F8014BAD1C0C1B09D1EA
:100200006D1E58BF01F801CBFAD505E014F8016B5B
:1002100001F8016B6D1EF9D59142D6D370470000ED
:100220000023002400250026103A28BF78C1FBD8FF
:10023000520728BF30C148BF0B60704764290DF0DA
:100240008D8575290DF08A8578290DF0EA85632959
:100250000EF0BE8073290EF0C380002070471FB5DA
:100260000EF04EFA1FBD10B510BD0EF0D3F81146BA
:10027000FFF7F5FF00F039F80EF0F1F803B4FFF7DF
:10028000F2FF03BC06F0F6FF30BF72B6704762B6ED
:10029000704780F3088870472DE9F0474A4D89463A
:1002A00007464FF400584146284607F0BAF9A9140A
:1002B000284607F0B4F90024EE140EE03146284633
:1002C00007F0ADF9484606F08CFF3146284607F0A6
:1002D000A8F9484606F085FF641CBC42EEDB4146A7
:1002E0002846BDE8F04707F09AB90EB54FF4A06074
:1002F00007F06CF8A82006F061FF04F045FC4FF40D
:10030000E13006F0BFFF00F041F900F079FE012076
:1003100000F0B5FC04F039FD2C484168A82088475E
:10032000002009F06DF9022009F06AF90CF0ECFEEA
:10033000274C012227A120680BF050FA012226A1A8
:1003400060680BF04BFA254C10254FF6FF761BE04A
:1003500023A0CDE900501023C82232211E2004F032
:10036000EAFBC82006F06BFF4223F02232211E2058
:10037000009604F0CAF9C82006F061FFD4F8A40280
:10038000F8B10020C4F8A4020DF096F90028DFD1DE
:1003900016494FF4784000220880182114A08DE8F7
:1003A00007000B46C8221E214FF4B4700DF07AFAF4
:1003B0004FF416744FF4487521462846FFF76CFF3A
:1003C000FAE70120DEE70000000C02408001002077
:1003D0002CBF0120303A0000313A00000080424238
:1003E000466F6E74204572726F72210014000020F7
:1003F000C0ACBBF8B7D6C0E0000000007047FEE715
:10040000FEE7FEE7FEE77047704770477047000061
:100410000CB50022544900920192086840F48030E3
:1004200008604FF4A043086800F400300190009881
:10043000401C0090019810B900989842F3D10868C8
:10044000800334D50120019047484030026842F0D3
:10045000805202604548026842F4404202604248CD
:10046000083002680260026842F4004202600268DA
:1004700042F4A0520260031F3D4A1A600A6842F02B
:1004800080720A600A689201FCD53A4940F205720E
:100490000A60016821F003010160016841F0020176
:1004A00001600168C1F381010229FAD10CBD0192FA
:1004B0000CBD314810B5016841F4700101602A4853
:1004C000016841F001010160274A002108321160F2
:1004D00002682A4B1A400260031D294A1A6002680A
:1004E00022F48022026020480C300160FFF790FF68
:1004F00021494FF000608039086010BD70B51A4D79
:10050000083528681F4B204910F00C0004D05E10FD
:10051000042803D0082803D00B601BE00E6019E00C
:10052000114A121D1068C0F38054106800F03F009B
:1005300014B1B6FBF0F001E0B3FBF0F01368126801
:10054000C3F388135843C2F30142521C5200B0FB5C
:10055000F2F0086028680C4AC0F30310121D105C0A
:100560000A68C2400A6070BD003802400070004056
:1005700008544007003C024088ED00E0FFFFF6FE13
:10058000103000240024F400000000207CB501217C
:10059000202007F006FC01208DF8040000228DF8D1
:1005A000062003218DF80510074D4FF4C0648DF827
:1005B000070000946946284606F0CCFF21462846ED
:1005C00007F02DF87CBD00000014024001B5BDF815
:1005D0000000ADF80000BDF800004FF0D841A1F8D0
:1005E0007E0008BD01B5BDF80000ADF80000BDF803
:1005F00000004FF0D841A1F8800008BD08B54FF0C9
:10060000D840B0F88000ADF80000BDF8000008BD8B
:100610004FF0D84222F87E0F5180704710B5FFF797
:10062000D5FF052006F0DDFDBDE81040E6E7FE48F9
:100630004FF0D8410089A1F87E0070474FF0D841B3
:10064000A1F880007047C0F34511C20AC00200EB58
:100650004110104480B27047401EC0B2FCD27047B7
:10066000F0B5F14E0C460246050AB1883046A1F5B8
:10067000134340894FEA142C413B1AD0A1F5A643FD
:10068000103B16D0B646B3793688A1F5D047B61AD6
:10069000761E043F17D07746A1F5C85EBEF1630E03
:1006A00025D0A1F5A04EBEF5A26E57D0012B6FD07C
:1006B0006FE0FFF78BFF2846FFF794FFD0B2FFF7FC
:1006C00091FFB0890CE07546012B00D1B2B2FFF763
:1006D0007DFF100AFFF786FFD0B2FFF783FFA889DE
:1006E000FFF774FF6046FFF77DFFE0B225E03BB304
:1006F000FFF76CFF2846FFF775FFD0B2FFF772FFD8
:100700003888401EC0F30F20FFF76CFF3878401E7A
:10071000C0B2FFF767FFB889FFF758FF6046FFF7E1
:1007200061FFE0B2FFF75EFF7888401EC0F30F2044
:10073000FFF758FFB878401EC0B2BDE8F04051E75F
:10074000B2B2FFF743FF0020FFF74CFF0020FFF796
:1007500049FF100AFFF746FFD0B2DAE7FFF736FF8E
:100760002846FFF73FFF7889401C80B2FFF72EFF35
:10077000D0B2FFF737FFB889FFF728FF6046FFF7D1
:1007800031FFB889401C80B2FFF720FFADE7FFE7DB
:10079000B2B21146FFF73CFFB8892146BDE8F040F0
:1007A00036E72DE9F041A04E0024254632888242EA
:1007B00002D972888A4202D80020BDE8F081FFF792
:1007C0004FFFB08849F2413841F6631C45F21032C0
:1007D00045F21057404507D0A0F5D041043903D069
:1007E000904201D0604501D12E2005E0B84202D1EF
:1007F0004FF4385000E02220FFF7E8FEB088A0F563
:100800001341203903D10220401EC0B2FCD2FFF7B1
:10081000F5FEB1886145D0D00220401EC0B2FCD2A6
:10082000FFF7ECFE0146B088C446604503D0904215
:1008300001D0B8420BD10220401EC0B2FCD2FFF75B
:10084000DDFE0546C8B24FF6FF7303EA0024B08808
:10085000A0F51343253B1AD0A0F58A43353B16D0AB
:100860001B1D14D0A0F53543053B10D0B3F58053C4
:100870000DD0604503D0904201D0B84209D1C80ADA
:10088000C002A10A40EA411040EAD52095E7084697
:1008900093E7BDE8F0410846D5E663488088A0F5B7
:1008A0001341413913D0A0F5D04104390FD0A0F540
:1008B000A64110390BD0A0F5C851633907D0A0F577
:1008C000AA41103905D040F273110720A0E6292073
:1008D00001E04FF4245079E653488088A0F5134195
:1008E000413912D0A0F5D04104390ED0A0F5A6416F
:1008F00010390AD0A0F5C851633906D0A0F5AA4135
:10090000103904D00021072082E6282001E04FF4AE
:1009100020505BE6F0B5444C00232146A27989883B
:1009200046F6040741F66315012A01D02AB11DE0FD
:10093000B9421BD0A94202D118E0A94216D1082819
:1009400014D2DFE800F00406080A0C0E101206208C
:100950000CE007200AE0042008E0052006E0012062
:1009600004E0002002E0032000E00220A1F5134C87
:1009700045F2103245F21056BCF1410C07D0B94295
:1009800005D0914203D0B14201D0A9427DD10828BF
:1009900012D2DFE800F0110406080A0C0E108023C2
:1009A0000AE0402308E0C02306E0202304E060239F
:1009B00002E0A02300E0E023B14202D14FF45850FE
:1009C00000E03620914205D0B14203D0A94201D0C7
:1009D00043F00803B94201D143F002031946FFF77F
:1009E00017FEA288AA420AD098062088618802D5FC
:1009F000884202D303E0884201D921806080608967
:100A0000B24246D1FFF7E2FD0020FFF7EBFD60891F
:100A1000401C80B2FFF7DAFD0020FFF7E3FD60899C
:100A2000801C80B202E0000084020020FFF7CEFDAF
:100A30002088401EC0F30F20FFF7D4FD6089C01C42
:100A400080B2FFF7C3FD2078401EC0B2FFF7CAFD99
:100A5000A089FFF7BBFD0020FFF7C4FDA089401C63
:100A600080B2FFF7B3FD0020FFF7BCFDA089801C1A
:100A700080B2FFF7ABFD6088401EC0F30F20FFF788
:100A8000B1FDA089C01C80B200E02AE0FFF79EFD06
:100A900021E0FFF79BFD0020FFF7A4FD0020FFF7FA
:100AA000A1FD2088401EC0F30F20FFF79BFD20789A
:100AB000401EC0B2FFF796FDA089FFF787FD00201A
:100AC000FFF790FD0020FFF78DFD6088401EC0F30A
:100AD0000F20FFF787FDA078BDE8F040401EC0B2B0
:100AE00080E5082812D2DFE800F0040608110A0C9D
:100AF0000E1030230AE0102308E0202306E03823FC
:100B000004E0282302E0182300E00823BDE8F040B9
:100B1000032043F480517BE500B5FFF7A1FDFFF70B
:100B200086FDFE484FF0D8410088A1F8800000BD46
:100B30002DE9F041FA4D90460C460246060AA98876
:100B40002846A1F5134340894FEA142C413B16D0A7
:100B5000A1F5A643103B12D0B3F5007313D02E4677
:100B6000A1F5C857B3793688B61A761E633F23D0ED
:100B7000A1F5D047043F3AD0012B4DD04DE0FFF70F
:100B800025FD304639E0FFF721FD3046FFF72AFD0D
:100B90006889401C80B2FFF719FDD0B2FFF722FD33
:100BA000A889FFF713FD6046FFF71CFDA889401CCC
:100BB00080B2FFF70BFD2BE003B9B2B2FFF706FDE1
:100BC000160A3046FFF70EFDD0B2FFF70BFD304698
:100BD000FFF708FDD0B2FFF705FDA889FFF7F6FC87
:100BE0006046FFF7FFFCE0B2FFF7FCFC0DE0012BD5
:100BF00000D1B2B2FFF7EAFC100AFFF7F3FCD0B263
:100C0000FFF7F0FCA889FFF7E1FC6046FFF7EAFC7C
:100C1000E0B2FFF7E7FC07E0B2B21146FFF7F8FCDD
:100C2000A8892146FFF7F4FC4FF0D840298920F825
:100C30007E1FA0F80280C0E510B50246BE20FFF777
:100C4000C5FC0520FFF7CEFC10460DF048FC9FEDDB
:100C5000B51B53EC112B0DF055FC0DF013FC80B2BD
:100C6000FFF7C0FC0120FFF7BDFCFF20FFF7BAFC37
:100C70000020FFF7B7FCBDE810400020B2E42DE9EA
:100C8000F04FA7492A232B24898845F2105A4FF4A4
:100C9000305B4FF4285E4FF448754FF0F00C49F28A
:100CA00041394FF4A07745F210364FF4F07280B11D
:100CB0009B484FF00108494580F806800780A0F85E
:100CC00002C001D0B1423ED12C25058143818481EF
:100CD00057E093484FF00008494580F80680A0F897
:100CE00000C0478006D0A1F5D04CBCF1040C01D067
:100CF000B1420CD12C2505814381A1F5D0438481DB
:100D0000043B01D0B14244D10780428041E05145CB
:100D100007D1A0F808B0A0F80AE04FF42C51818167
:100D20000EE0A1F5C856633E06D0222101812021A4
:100D30004181212181812CE02C2101814481838109
:100D40000280458025E0A1F5D04CBCF1040C09D00F
:100D500051450BD1A0F808B0A0F80AE04FF42C538D
:100D6000838120E02C250581448109E0A1F5C85C40
:100D7000BCF1630C11D02223038121234381202362
:100D80008381A1F5D043043B01D0B14201D102805F
:100D90004780BDE8F04F0020BCE54FF02C0CA0F8D8
:100DA00008C04381848105804280EAE72DE9FE4F37
:100DB0000446104401EB0308DFF86491401EA8F1DB
:100DC000010887B2B9F80400C8F3072302930B0A9D
:100DD0000093A3185B1EC3F3072301934B460D46F4
:100DE0005B89A0F513411FFA88F64FEA142B4139AD
:100DF00010D0A0F5A64110390CD0A0F5D04104398F
:100E000008D099F806A041F6631CBAF1010F1ED173
:100E100060451CD14A461846FFF7D8FB5846FFF7F5
:100E2000E1FBE0B2FFF7DEFB0198FFF7DBFBF8B276
:100E3000FFF7D8FB9089FFF7C9FB0098FFF7D2FBBB
:100E4000E8B2FFF7CFFB0298FFF7CCFB96E03449FE
:100E50006045098825D1881A001B84B24E461FFAC6
:100E600088F71846FFF7B2FB200AFFF7BBFBE0B29A
:100E7000FFF7B8FB2244521EC2F30F20FFF7B2FB6C
:100E8000D0B2FFF7AFFBB089FFF7A0FB0098FFF7E8
:100E9000A9FBE8B2FFF7A6FB380AFFF7A3FBF8B2FD
:100EA0006DE0A0F5A04C4A46BCF5A26C23D0BAF187
:100EB000010F68D03B4620462F46502201464FF096
:100EC00051094FF052084FF0530C1046FFF7A0FBAA
:100ED00019464846FFF79CFB39464046FFF798FB0A
:100EE00031466046FFF794FB03B029462046BDE833
:100EF000F04FFFF7B5BB1846FFF768FB5846FFF702
:100F000071FB5089401C80B2FFF760FBE0B2FFF735
:100F100069FB5089801C80B208E0000014000020AA
:100F2000840200206666666666660440FFF74EFB34
:100F30000198FFF757FB5089C01C80B2FFF746FBB2
:100F4000F8B2FFF74FFB9089FFF740FB0098FFF7DF
:100F500049FB9089401C80B2FFF738FBE8B2FFF7ED
:100F600041FB9089801C80B2FFF730FB0298FFF7AD
:100F700039FB9089C01C80B2FFF728FBF0B2BDE8B6
:100F8000FE4FFFF72FBBCA1B521E091B3346491EDB
:100F9000284697B28EB290E72DE9F043FF4F064600
:100FA000002438887D884543B888A0F5D0410439AD
:100FB00002D1B879012808D000210846FFF750FB7C
:100FC000FFF735FB4FF0D84016E00020B8714FF026
:100FD0002A09A7F80A904FF02B08A7F80C800146C1
:100FE000FFF73EFB0120B871A7F80A80A7F80C9024
:100FF000E6E7A0F88060641CAC42FAD3BDE8F08359
:101000002DE9F04FA1B0002401217A201F9406F0B1
:10101000C8FE0121084606F0D8FE01208DF8040024
:101020008DF8064002208DF8050001204FF4004B9A
:101030008DF80700CDF800B06946D94806F08AFA65
:101040004CF23370009002208DF804008DF80640B9
:1010500003208DF8050001208DF807006946D1486E
:1010600006F078FA4FF68070009002208DF80400A8
:101070008DF8064003208DF805000120CA4D8DF83B
:1010800007006946284606F065FAA8140090022079
:101090008DF804008DF8064003208DF8050001202E
:1010A000C24E8DF807006946304606F053FAA81480
:1010B000009002208DF804008DF8064003208DF882
:1010C00005000120BA4F8DF807006946384606F042
:1010D00041FA0C220021B34806F0B0FA0C2201219B
:1010E000B04806F0ABFA0C220421AE4806F0A6FA8E
:1010F0000C220521AB4806F0A1FA0C220821A948D0
:1011000006F09CFA0C220921A64806F097FA0C2258
:101110000A21A44806F092FA0C220E21A14806F0FA
:101120008DFA0C220F219F4806F088FA0C22072125
:10113000284606F083FA0C220821284606F07EFA9B
:101140000C220921284606F079FA0C220A212846A9
:1011500006F074FA0C220B21284606F06FFA0C22D6
:101160001146284606F06AFA0C220D21284606F0A0
:1011700065FA0C220E21284606F060FA0C220F2197
:10118000284606F05BFA0C221146304606F056FA65
:101190000C221146384606F051FA0F20CDE9110411
:1011A0003C20CDE91304159409201694CDE917408D
:1011B0000820CDE919401B941C940620CDE90204B7
:1011C0001D941E941020CDE9044006940002CDE940
:1011D0000A40089407948000CDE90C40099411A8B6
:1011E000CDE90E4018A8109002A806F060FA01217F
:1011F000062006F0D5FA322006F021F80121002061
:10120000FFF706FA322006F01AF80020FFF706FA78
:10121000624A4FF020494FF6FF7A908049F24135FB
:1012200045F2103645F2105441F6631846F60407AD
:10123000FF2804D3504502D0B0F5134F75D1D32009
:10124000FFF7C4F9FFF7DAF99080FFF7D7F990803C
:10125000FFF7D4F90AEA0020D4469080FFF7CEF9D0
:10126000918808439080A8425FD0BF20FFF7AEF975
:10127000FFF7C4F99080FFF7C1F99080FFF7BEF93E
:101280009080FFF7BBF90CEA00209080FFF7B6F9D9
:10129000918808439080B84247D0D420FFF796F950
:1012A000FFF7ACF99080FFF7A9F99080FFF7A6F956
:1012B0000CEA00209080FFF7A1F991880843908004
:1012C000B04232D04FF45A40FFF780F9FFF796F959
:1012D00090804FF45B40FFF779F9FFF78FF90CEA44
:1012E000002090804FF45C40FFF770F9FFF786F91B
:1012F000918808439080584501D194801EE0A04217
:1013000013D0A120FFF762F9FFF778F99080FFF77B
:1013100075F90CEA00209080FFF770F99188084376
:10132000A0F5AE419080613920D080B2A84205D0AE
:10133000B04203D0A04201D040451AD1D9F81C11C7
:10134000484621F00F01C9F81C11D9F81C1121F4ED
:101350007061C9F81C11D9F81C1141F00301C9F8DA
:101360001C11D9F81C1141F400712DE0A2F8048081
:10137000E4E7B84203D0A0F54541053926D1D9F8B4
:101380001C11484621F00F01C9F81C11D9F81C1195
:1013900021F47061C9F81C110CE0000084020020E7
:1013A00000040240000C0240001002400014024001
:1013B00000180240D9F81C1141F00A01C9F81C11AB
:1013C000D9F81C1141F44061C0F81C119146918874
:1013D000FEA00CF067FCB9F80400A8427ED1CF2033
:1013E000FFF7F4F80020FFF7FDF8C120FFF7FAF847
:1013F0003020FFF7F7F8ED20FFF7E8F86420FFF75B
:10140000F1F80320FFF7EEF81220FFF7EBF8812048
:10141000FFF7E8F8E820FFF7D9F88520FFF7E2F8B2
:101420001020FFF7DFF87A20FFF7DCF8CB20FFF77A
:10143000CDF83920FFF7D6F82C20FFF7D3F800209D
:10144000FFF7D0F83420FFF7CDF80220FFF7CAF8F5
:10145000F720FFF7BBF82020FFF7C4F8EA20FFF7DA
:10146000B5F80020FFF7BEF80020FFF7BBF8C0205A
:10147000FFF7ACF81B20FFF7B5F8C120FFF7A6F87F
:101480000120FFF7AFF8C520FFF7A0F83020FFF7E5
:10149000A9F83020FFF7A6F8C720FFF797F8B72084
:1014A000FFF7A0F83620FFF791F84820FFF79AF8E9
:1014B0003A20FFF78BF85520FFF794F8B120FFF79B
:1014C00085F80020FFF78EF81A20FFF78BF8B6207A
:1014D000FFF77CF80A20FFF785F800E090E0A220F3
:1014E000FFF780F8F220FFF771F80020FFF77AF895
:1014F0002620FFF76BF80120FFF774F8E020FFF7D4
:1015000065F80F20FFF76EF82A20FFF76BF8282008
:10151000FFF768F80820FFF765F80E20FFF762F87C
:101520000820FFF75FF85420FFF75CF8A920FFF7C9
:1015300059F84320FFF756F80A20FFF753F80F2019
:10154000FFF750F80020FFF74DF80020FFF74AF8AA
:101550000020FFF747F80020FFF744F8E120FFF7ED
:1015600035F80020FFF73EF81520FFF73BF817206D
:10157000FFF738F80720FFF735F81120FFF732F8AA
:101580000620FFF72FF82B20FFF72CF85620FFF747
:1015900029F83C20FFF726F80520FFF723F8102054
:1015A000FFF720F80F20FFF71DF83F20FFF71AF88C
:1015B0003F20FFF717F80F20FFF714F82B20FFF755
:1015C00005F80020FFF70EF80020FFF70BF80120C8
:1015D000FFF708F83F20FFF705F82A20FEF7F6FF8F
:1015E0000020FEF7FFFF0020FEF7FCFF0020FEF7C3
:1015F000F9FFEF20FEF7F6FF1120FEF7E7FFA5E069
:10160000B8427CD11120FEF7E1FF142005F017FE4F
:10161000D020FEF7DBFF0720FEF7E4FF4220FEF7B5
:10162000E1FF1D20FEF7DEFFD120FEF7CFFF0020F7
:10163000FEF7D8FF1A20FEF7D5FF0920FEF7D2FFEC
:10164000D220FEF7C3FF0120FEF7CCFF2220FEF7D9
:10165000C9FFC020FEF7BAFF1020FEF7C3FF3B20F2
:10166000FEF7C0FF0020FEF7BDFF0220FEF7BAFF25
:101670001120FEF7B7FFC520FEF7A8FF0320FEF7F5
:10168000B1FFC820FEF7A2FF0020FEF7ABFF252028
:10169000FEF7A8FF2120FEF7A5FF0520FEF7A2FF19
:1016A0000020FEF79FFF0A20FEF79CFF6520FEF753
:1016B00099FF2520FEF796FF7720FEF793FF502035
:1016C000FEF790FF0F20FEF78DFF0020FEF78AFF48
:1016D000F820FEF77BFF0120FEF784FFFE20FEF7D7
:1016E00075FF0020FEF77EFF0220FEF77BFF202023
:1016F000FEF76CFF3620FEF769FF082000E02BE0C4
:10170000FEF770FF3A20FEF761FF5520FEF76AFFF3
:101710002B20FEF75BFF0020FEF764FF0020FEF7A2
:1017200061FF0120FEF75EFF3F20FEF75BFF2A20EE
:10173000FEF74CFF0020FEF755FF0020FEF752FF9A
:101740000120FEF74FFFDF20FEF74CFF782005F069
:1017500076FD292001F004BFB0427CD1ED20FEF7D8
:1017600035FF0120FEF73EFFFE20FEF73BFFEE2097
:10177000FEF72CFFDE20FEF735FF2120FEF732FFBB
:10178000F120FEF723FF0120FEF72CFFDF20FEF7FC
:101790001DFF1020FEF726FFC420FEF717FF8F2045
:1017A000FEF720FFC620FEF711FF0020FEF71AFF0C
:1017B000E220FEF717FFE220FEF714FFE220FEF71B
:1017C00011FFBF20FEF702FFAA2007E0204C434490
:1017D0002049443A25780D0A00000000FEF702FF78
:1017E000B020FEF7F3FE0D20FEF7FCFE0020FEF712
:1017F000F9FE0D20FEF7F6FE0020FEF7F3FE1120A5
:10180000FEF7F0FE0020FEF7EDFE1920FEF7EAFEDF
:101810000020FEF7E7FE2120FEF7E4FE0020FEF7A1
:10182000E1FE2D20FEF7DEFE0020FEF7DBFE3D2070
:10183000FEF7D8FE0020FEF7D5FE5D20FEF7D2FEB3
:101840000020FEF7CFFE5D20FEF7CCFE0020FEF765
:10185000C9FEB12000E0FCE3FEF7B8FE8020FEF7F1
:10186000C1FE0020FEF7BEFE8B20FEF7BBFE00206F
:10187000FEF7B8FE9620FEF7B5FE0020FEF7B2FE9A
:10188000B220FEF7A3FE0020FEF7ACFE0020FEF71C
:10189000A9FE0220FEF7A6FE0020FEF7A3FE03200D
:1018A000FEF7A0FE0020FEF79DFEB320FEF78EFEA1
:1018B0000020FEF797FE0020FEF794FE0020FEF7C2
:1018C00091FE0020FEF78EFE0020FEF78BFE00202A
:1018D000FEF788FE0020FEF785FE0020FEF782FE60
:1018E0000020FEF77FFE0020FEF77CFE0020FEF7C2
:1018F00079FE0020FEF776FE0020FEF773FE002042
:10190000FEF770FE0020FEF76DFE0020FEF76AFE77
:101910000020FEF767FE0020FEF764FE0020FEF7C1
:1019200061FE0020FEF75EFE0020FEF75BFE002059
:10193000FEF758FE0020FEF755FE0020FEF752FE8F
:10194000B420FEF743FE8B20FEF74CFE0020FEF78E
:1019500049FE9620FEF746FE0020FEF743FEA1203A
:10196000FEF740FE0020FEF73DFEB520FEF72EFEFE
:101970000220FEF737FE0020FEF734FE0320FEF7BC
:1019800031FE0020FEF72EFE0420FEF72BFE002085
:10199000FEF728FEB620FEF719FE0020FEF722FE15
:1019A0000020FEF71FFEB720FEF710FE0020FEF716
:1019B00019FE0020FEF716FE3F20FEF713FE002062
:1019C000FEF710FE5E20FEF70DFE0020FEF70AFE79
:1019D0006420FEF707FE0020FEF704FE8C20FEF7D1
:1019E00001FE0020FEF7FEFDAC20FEF7FBFD00200F
:1019F000FEF7F8FDDC20FEF7F5FD0020FEF7F2FD16
:101A00007020FEF7EFFD0020FEF7ECFD9020FEF7C2
:101A1000E9FD0020FEF7E6FDEB20FEF7E3FD0020E8
:101A2000FEF7E0FDDC20FEF7DDFD0020FEF7DAFD2D
:101A3000B820FEF7CBFD0020FEF7D4FD0020FEF716
:101A4000D1FD0020FEF7CEFD0020FEF7CBFD0020EB
:101A5000FEF7C8FD0020FEF7C5FD0020FEF7C2FD21
:101A60000020FEF7BFFDBA20FEF7B0FD2420FEF7F0
:101A7000B9FD0020FEF7B6FD0020FEF7B3FD002003
:101A8000FEF7B0FDC120FEF7A1FD2020FEF7AAFD64
:101A90000020FEF7A7FD5420FEF7A4FD0020FEF76E
:101AA000A1FDFF20FEF79EFD0020FEF79BFDC2205A
:101AB000FEF78CFD0A20FEF795FD0020FEF792FD53
:101AC0000420FEF78FFD0020FEF78CFDC320FEF7FB
:101AD0007DFD3C20FEF786FD0020FEF783FD3A20C9
:101AE000FEF780FD0020FEF77DFD3920FEF77AFD30
:101AF0000020FEF777FD3720FEF774FD0020FEF78B
:101B000071FD3C20FEF76EFD0020FEF76BFD3620D8
:101B1000FEF768FD0020FEF765FD3220FEF762FD4E
:101B20000020FEF75FFD2F20FEF75CFD0020FEF792
:101B300059FD2C20FEF756FD0020FEF753FD29200D
:101B4000FEF750FD0020FEF74DFD2620FEF74AFD72
:101B50000020FEF747FD2420FEF744FD0020FEF79D
:101B600041FD2420FEF73EFD0020FEF73BFD232033
:101B7000FEF738FD0020FEF735FD3C20FEF732FD74
:101B80000020FEF72FFD3620FEF72CFD0020FEF78B
:101B900029FD3220FEF726FD0020FEF723FD2F2031
:101BA000FEF720FD0020FEF71DFD2C20FEF71AFD9C
:101BB0000020FEF717FD2920FEF714FD0020FEF798
:101BC00011FD2620FEF70EFD0020FEF70BFD242060
:101BD000FEF708FD0020FEF705FD2420FEF702FDBC
:101BE0000020FEF7FFFC2320FEF7FCFC0020FEF7A0
:101BF000F9FCC420FEF7EAFC6220FEF7F3FC0020AB
:101C0000FEF7F0FC0520FEF7EDFC0020FEF7EAFCF5
:101C10008420FEF7E7FC0020FEF7E4FCF020FEF74E
:101C2000E1FC0020FEF7DEFC1820FEF7DBFC0020C4
:101C3000FEF7D8FCA420FEF7D5FC0020FEF7D2FC6E
:101C40001820FEF7CFFC0020FEF7CCFC5020FEF75A
:101C5000C9FC0020FEF7C6FC0C20FEF7C3FC0020E8
:101C6000FEF7C0FC1720FEF7BDFC0020FEF7BAFC13
:101C70009520FEF7B7FC0020FEF7B4FCF320FEF73A
:101C8000B1FC0020FEF7AEFCE620FEF7ABFC002026
:101C9000FEF7A8FCC520FEF799FC3220FEF7A2FC57
:101CA0000020FEF79FFC4420FEF79CFC0020FEF77E
:101CB00099FC6520FEF796FC0020FEF793FC762049
:101CC000FEF790FC0020FEF78DFC8820FEF78AFCD2
:101CD0000020FEF787FCC620FEF778FC2020FEF7E8
:101CE00081FC0020FEF77EFC1720FEF77BFC002025
:101CF000FEF778FC0120FEF775FC0020FEF772FC71
:101D0000C720FEF763FC0020FEF76CFC0020FEF706
:101D100069FC0020FEF766FC0020FEF763FCC8208B
:101D2000FEF754FC0020FEF75DFC0020FEF75AFC95
:101D30000020FEF757FC0020FEF754FCC920FEF7F8
:101D400045FC0020FEF74EFC0020FEF74BFC002077
:101D5000FEF748FC0020FEF745FC0020FEF742FCA1
:101D60000020FEF73FFC0020FEF73CFC0020FEF7C1
:101D700039FC0020FEF736FC0020FEF733FC002083
:101D8000FEF730FC0020FEF72DFC0020FEF72AFCB9
:101D90000020FEF727FC0020FEF724FC0020FEF7C1
:101DA00021FCE020FEF712FC1620FEF71BFC0020B1
:101DB000FEF718FC1C20FEF715FC0020FEF712FCB5
:101DC0002120FEF70FFC0020FEF70CFC3620FEF76A
:101DD00009FC0020FEF706FC4620FEF703FC00206D
:101DE000FEF700FC5220FEF7FDFB0020FEF7FAFB99
:101DF0006420FEF7F7FB0020FEF7F4FB7A20FEF7E5
:101E0000F1FB0020FEF7EEFB8B20FEF7EBFB002042
:101E1000FEF7E8FB9920FEF7E5FB0020FEF7E2FB6A
:101E2000A820FEF7DFFB0020FEF7DCFBB920FEF761
:101E3000D9FB0020FEF7D6FBC420FEF7D3FB002021
:101E4000FEF7D0FBCA20FEF7CDFB0020FEF7CAFB51
:101E5000D220FEF7C7FB0020FEF7C4FBD920FEF717
:101E6000C1FB0020FEF7BEFBE020FEF7BBFB00201D
:101E7000FEF7B8FBF320FEF7B5FB0020FEF7B2FB40
:101E8000E120FEF7A3FB1620FEF7ACFB0020FEF7D7
:101E9000A9FB1C20FEF7A6FB0020FEF7A3FB2220D7
:101EA000FEF7A0FB0020FEF79DFB3620FEF79AFB15
:101EB0000020FEF797FB4520FEF794FB0020FEF77D
:101EC00091FB5220FEF78EFB0020FEF78BFB642077
:101ED000FEF788FB0020FEF785FB7A20FEF782FBE9
:101EE0000020FEF77FFB8B20FEF77CFB0020FEF737
:101EF00079FB9920FEF776FB0020FEF773FBA82004
:101F0000FEF770FB0020FEF76DFBB920FEF76AFBC1
:101F10000020FEF767FBC420FEF764FB0020FEF7FD
:101F200061FBCA20FEF75EFB0020FEF75BFBD220C0
:101F3000FEF758FB0020FEF755FBD820FEF752FBBA
:101F40000020FEF74FFBE020FEF74CFB0020FEF7E1
:101F500049FBF320FEF746FB0020FEF743FBE2209F
:101F6000FEF734FB0520FEF73DFB0020FEF73AFBB1
:101F70000B20FEF737FB0020FEF734FB1B20FEF79B
:101F800031FB0020FEF72EFB3420FEF72BFB002058
:101F9000FEF728FB4420FEF725FB0020FEF722FB7E
:101FA0004F20FEF71FFB0020FEF71CFB6120FEF711
:101FB00019FB0020FEF716FB7920FEF713FB00202B
:101FC000FEF710FB8820FEF70DFB0020FEF70AFB52
:101FD0009720FEF707FB0020FEF704FBA620FEF784
:101FE00001FB0020FEF7FEFAB720FEF7FBFA002007
:101FF000FEF7F8FAC220FEF7F5FA0020FEF7F2FA33
:10200000C720FEF7EFFA0020FEF7ECFAD120FEF72A
:10201000E9FA0020FEF7E6FAD620FEF7E3FA002000
:10202000FEF7E0FADD20FEF7DDFA0020FEF7DAFA2F
:10203000F320FEF7D7FA0020FEF7D4FAE320FEF7EC
:10204000C5FA0520FEF7CEFA0020FEF7CBFA0A20EB
:1020500000E006E3FEF7C6FA0020FEF7C3FA1C20F4
:10206000FEF7C0FA0020FEF7BDFA3320FEF7BAFAF9
:102070000020FEF7B7FA4420FEF7B4FA0020FEF77E
:10208000B1FA5020FEF7AEFA0020FEF7ABFA62205C
:10209000FEF7A8FA0020FEF7A5FA7820FEF7A2FACC
:1020A0000020FEF79FFA8820FEF79CFA0020FEF73A
:1020B00099FA9720FEF796FA0020FEF793FAA620E9
:1020C000FEF790FA0020FEF78DFAB720FEF78AFAA5
:1020D0000020FEF787FAC220FEF784FA0020FEF700
:1020E00081FAC720FEF77EFA0020FEF77BFAD120A6
:1020F000FEF778FA0020FEF775FAD520FEF772FA9F
:102100000020FEF76FFADD20FEF76CFA0020FEF7E4
:1021100069FAF320FEF766FA0020FEF763FAE4207E
:10212000FEF754FA0120FEF75DFA0020FEF75AFA96
:102130000120FEF757FA0020FEF754FA0220FEF7BE
:1021400051FA0020FEF74EFA2A20FEF74BFA002043
:10215000FEF748FA3C20FEF745FA0020FEF742FA67
:102160004B20FEF73FFA0020FEF73CFA5D20FEF719
:1021700039FA0020FEF736FA7420FEF733FA002011
:10218000FEF730FA8420FEF72DFA0020FEF72AFA37
:102190009320FEF727FA0020FEF724FAA220FEF78C
:1021A00021FA0020FEF71EFAB320FEF71BFA0020EA
:1021B000FEF718FABE20FEF715FA0020FEF712FA15
:1021C000C420FEF70FFA0020FEF70CFACD20FEF730
:1021D00009FA0020FEF706FAD320FEF703FA0020E2
:1021E000FEF700FADD20FEF7FDF90020FEF7FAF910
:1021F000F320FEF7F7F90020FEF7F4F9E520FEF7EB
:10220000E5F90020FEF7EEF90020FEF7EBF90020DB
:10221000FEF7E8F90020FEF7E5F90220FEF7E2F903
:102220000020FEF7DFF92920FEF7DCF90020FEF799
:10223000D9F93C20FEF7D6F90020FEF7D3F94B2060
:10224000FEF7D0F90020FEF7CDF95D20FEF7CAF9C0
:102250000020FEF7C7F97420FEF7C4F90020FEF74E
:10226000C1F98420FEF7BEF90020FEF7BBF99320E8
:10227000FEF7B8F90020FEF7B5F9A220FEF7B2F993
:102280000020FEF7AFF9B320FEF7ACF90020FEF70F
:10229000A9F9BE20FEF7A6F90020FEF7A3F9C42095
:1022A000FEF7A0F90020FEF79DF9CD20FEF79AF980
:1022B0000020FEF797F9D320FEF794F90020FEF7EF
:1022C00091F9DC20FEF78EF90020FEF78BF9F32060
:1022D000FEF788F90020FEF785F9E620FEF776F98B
:1022E0001120FEF77FF90020FEF77CF93420FEF77D
:1022F00079F90020FEF776F95620FEF773F90020F1
:10230000FEF770F97620FEF76DF90020FEF76AF906
:102310007720FEF767F90020FEF764F96620FEF7E4
:1023200061F90020FEF75EF98820FEF75BF90020D6
:10233000FEF758F99920FEF755F90020FEF752F9FB
:10234000BB20FEF74FF90020FEF74CF99920FEF76D
:1023500049F90020FEF746F96620FEF743F9002010
:10236000FEF740F95520FEF73DF90020FEF73AF957
:102370005520FEF737F90020FEF734F94520FEF727
:1023800031F90020FEF72EF94320FEF72BF900204B
:10239000FEF728F94420FEF725F90020FEF722F980
:1023A000E720FEF713F93220FEF71CF90020FEF7B4
:1023B00019F95520FEF716F90020FEF713F97620DB
:1023C000FEF710F90020FEF70DF96620FEF70AF976
:1023D0000020FEF707F96720FEF704F90020FEF75A
:1023E00001F96720FEF7FEF80020FEF7FBF88720D2
:1023F000FEF7F8F80020FEF7F5F89920FEF7F2F85E
:102400000020FEF7EFF8BB20FEF7ECF80020FEF707
:10241000E9F89920FEF7E6F80020FEF7E3F87720C8
:10242000FEF7E0F80020FEF7DDF84420FEF7DAF8CA
:102430000020FEF7D7F85620FEF7D4F80020FEF76C
:10244000D1F82320FEF7CEF80020FEF7CBF833209A
:10245000FEF7C8F80020FEF7C5F84520FEF7C2F8E1
:102460000020FEF7BFF8E820FEF7B0F80020FEF7E6
:10247000B9F80020FEF7B6F89920FEF7B3F800206F
:10248000FEF7B0F88720FEF7ADF80020FEF7AAF8B7
:102490008820FEF7A7F80020FEF7A4F87720FEF7C3
:1024A000A1F80020FEF79EF86620FEF79BF80020BA
:1024B000FEF798F88820FEF795F80020FEF792F8CE
:1024C000AA20FEF78FF80020FEF78CF8BB20FEF75D
:1024D00089F80020FEF786F89920FEF783F800209F
:1024E000FEF780F86620FEF77DF80020FEF77AF808
:1024F0005520FEF777F80020FEF774F85520FEF718
:1025000071F80020FEF76EF84420FEF76BF800200B
:10251000FEF768F84420FEF765F80020FEF762F841
:102520005520FEF75FF80020FEF75CF8E920FEF783
:102530004DF8AA20FEF756F80020FEF753F80020C9
:10254000FEF750F80020FEF74DF80020FEF73EF8A9
:10255000AA20FEF747F8CF20FEF738F80020FEF754
:1025600041F80020FEF73EF80020FEF73BF800207F
:10257000FEF738F80020FEF735F80020FEF732F8B5
:102580000020FEF72FF80020FEF72CF80020FEF7C1
:1025900029F80020FEF726F80020FEF723F8002097
:1025A000FEF720F80020FEF71DF80020FEF71AF8CD
:1025B0000020FEF717F80020FEF714F80020FEF7C1
:1025C00011F8F020FEF702F80020FEF70BF850207B
:1025D000FEF708F80020FEF705F80020FEF702F8E5
:1025E0000020FDF7FFFFF320FDF7F0FF0020FDF7CF
:1025F000F9FFF920FDF7EAFF0620FDF7F3FF1020B1
:10260000FDF7F0FF2920FDF7EDFF0020FDF7EAFFC1
:102610003A20FDF7DBFF5520FDF7E4FF1120FDF721
:10262000D5FF642004F00BFE2920FDF7CFFF3520F5
:10263000FDF7CCFF0020FDF7D5FF5120FDF7C6FFC9
:10264000FF20FDF7CFFF5320FDF7C0FF2C20FDF743
:10265000C9FF5520FDF7BAFF8220FDF7C3FF2C20EC
:10266000FDE3A0427ED14FF4704355211846FDF79B
:10267000CFFF4FF20104AA212046FDF7C9FF651CD8
:1026800052212846FDF7C4FFA61C08213046FDF75D
:10269000BFFFE71C01213846FDF7BAFF0D214FF4BB
:1026A0003040FDF7B5FF0D214BF20100FDF7B0FF03
:1026B0000D214BF20200FDF7ABFF4FF4364C3421F5
:1026C0006046FDF7A5FF34214BF20160FDF7A0FF46
:1026D00034214BF20260FDF79BFF4FF431480D218E
:1026E0004046FDF795FF4BF201190D214846FDF7D5
:1026F0008FFF0D214BF20210FDF78AFF4FF4374B8D
:1027000034215846FDF784FF34214BF20170FDF768
:102710007FFF34214BF20270FDF77AFF00214FF466
:102720003240FDF775FF00214BF20120FDF770FFED
:1027300000214BF20220FDF76BFF24214FF43840BB
:10274000FDF766FF24214BF60100FDF761FF242110
:102750004BF60200FDF75CFF01214FF43F40FDF70F
:1027600057FF00E0FEE30F214FF43340FDF750FF29
:102770000F214BF20130FDF74BFF0F214BF20230DE
:10278000FDF746FF34214FF43940FDF741FF342176
:102790004BF60110FDF73CFF34214BF60210FDF71C
:1027A00037FF08214FF43540FDF732FF08214BF287
:1027B0000150FDF72DFF08214BF20250FDF728FFD5
:1027C00003214FF44240FDF723FF24214FF43A4008
:1027D000FDF71EFF24214BF60120FDF719FF2421F0
:1027E0004BF60220FDF714FF00214FF43C40FDF7AB
:1027F0000FFF78214BF60140FDF70AFF00214BF651
:102800000240FDF705FF00214FF43D40FDF700FFBA
:1028100078214BF60150FDF7FBFE00214BF60250EC
:10282000FDF7F6FE00214FF43E40FDF7F1FE642176
:102830004BF60160FDF7ECFE00214FF45140FDF72F
:10284000E7FE33214DF20110FDF7E2FE00214DF2CB
:102850000210FDF7DDFE34214DF20310FDF7D8FE26
:1028600000214DF20410FDF7D3FE3A214DF2051080
:10287000FDF7CEFE00214DF20610FDF7C9FE4A21FC
:102880004DF20710FDF7C4FE00214DF20810FDF7D0
:10289000BFFE5C214DF20910FDF7BAFE00214DF29A
:1028A0000A10FDF7B5FE81214DF20B10FDF7B0FEC9
:1028B00000214DF20C10FDF7ABFEA6214DF20D10DC
:1028C000FDF7A6FE00214DF20E10FDF7A1FEE52159
:1028D0004DF20F10FDF79CFE01214DF21010FDF797
:1028E00097FE13214DF21110FDF792FE01214DF2DA
:1028F0001210FDF78DFE54214DF21310FDF788FEE6
:1029000001214DF21410FDF783FE82214DF21510C6
:10291000FDF77EFE01214DF21610FDF779FECA216A
:102920004DF21710FDF774FE02214DF21810FDF75D
:102930006FFE00214DF21910FDF76AFE02214DF2E3
:102940001A10FDF765FE01214DF21B10FDF760FE28
:1029500002214DF21C10FDF75BFE34214DF21D10DB
:10296000FDF756FE02214DF21E10FDF751FE6721C4
:102970004DF21F10FDF74CFE02214DF22010FDF725
:1029800047FE84214DF22110FDF742FE02214DF257
:102990002210FDF73DFEA4214DF22310FDF738FE75
:1029A00002214DF22410FDF733FEB7214DF2251020
:1029B000FDF72EFE02214DF22610FDF729FECF2154
:1029C0004DF22710FDF724FE02214DF22810FDF7ED
:1029D0001FFEDE214DF22910FDF71AFE02214DF2F5
:1029E0002A10FDF715FEF2214DF22B10FDF710FE17
:1029F00002214DF22C10FDF70BFEFE214DF22D10A1
:102A0000FDF706FE03214DF22E10FDF701FE102109
:102A10004DF22F10FDF7FCFD03214DF23010FDF7B4
:102A2000F7FD33214DF23110FDF7F2FD03214DF298
:102A30003210FDF7EDFD6D214DF23310FDF7E8FD8D
:102A400000214FF45240FDF7E3FD33214DF2012008
:102A5000FDF7DEFD00214DF20220FDF7D9FD342106
:102A60004DF20320FDF7D4FD00214DF20420FDF7C7
:102A7000CFFD3A214DF20520FDF7CAFD00214DF2B0
:102A80000620FDF7C5FD4A214DF20720FDF7C0FDE8
:102A900000214DF20820FDF7BBFD5C214DF209201D
:102AA000FDF7B6FD00214DF20A20FDF7B1FD8121B1
:102AB0004DF20B20FDF7ACFD00214DF20C20FDF78F
:102AC000A7FDA6214DF20D20FDF7A2FD00214DF23C
:102AD0000E20FDF79DFDE5214DF20F20FDF798FD3D
:102AE00001214DF21020FDF793FD13214DF211202D
:102AF000FDF78EFD01214DF21220FDF789FD5421D5
:102B00004DF21320FDF784FD01214DF21420FDF755
:102B10007FFD82214DF21520FDF77AFD01214DF256
:102B20001620FDF775FDCA214DF21720FDF770FD47
:102B300002214DF21820FDF76BFD00214DF2192006
:102B4000FDF766FD02214DF21A20FDF761FD01211E
:102B50004DF21B20FDF75CFD02214DF21C20FDF71C
:102B600057FD34214DF21D20FDF752FD02214DF29B
:102B70001E20FDF74DFD67214DF21F20FDF748FD9A
:102B800002214DF22020FDF743FD84214DF221204A
:102B9000FDF73EFD02214DF22220FDF739FDA42173
:102BA0004DF22320FDF734FD02214DF22420FDF7E4
:102BB0002FFDB7214DF22520FDF72AFD02214DF210
:102BC0002620FDF725FDCF214DF22720FDF720FD22
:102BD00002214DF22820FDF71BFDDE214DF22920B8
:102BE000FDF716FD02214DF22A20FDF711FDF2211D
:102BF0004DF22B20FDF70CFD02214DF22C20FDF7AC
:102C000007FDFE214DF22D20FDF702FD03214DF2BF
:102C10002E20FDF7FDFC10214DF22F20FDF7F8FCD2
:102C200003214DF23020FDF7F3FC33214DF231202A
:102C3000FDF7EEFC03214DF23220FDF7E9FC6D219A
:102C40004DF23320FDF7E4FC00214FF45340FDF733
:102C5000DFFC33214DF20130FDF7DAFC00214DF2AB
:102C60000230FDF7D5FC34214DF20330FDF7D0FCE6
:102C700000214DF20430FDF7CBFC3A214DF2053036
:102C8000FDF7C6FC00214DF20630FDF7C1FC4A21DC
:102C90004DF20730FDF7BCFC00214DF20830FDF786
:102CA000B7FC5C214DF20930FDF7B2FC00214DF27A
:102CB0000A30FDF7ADFC81214DF20B30FDF7A8FC89
:102CC00000214DF20C30FDF7A3FCA6214DF20D3092
:102CD000FDF79EFC00214DF20E30FDF799FCE52139
:102CE0004DF20F30FDF794FC01214DF21030FDF74D
:102CF0008FFC13214DF21130FDF78AFC01214DF2BA
:102D00001230FDF785FC54214DF21330FDF780FCA5
:102D100001214DF21430FDF77BFC82214DF215307C
:102D2000FDF776FC01214DF21630FDF771FCCA214A
:102D30004DF21730FDF76CFC02214DF21830FDF713
:102D400067FC00214DF21930FDF762FC02214DF2C3
:102D50001A30FDF75DFC01214DF21B30FDF758FCE8
:102D600002214DF21C30FDF753FC34214DF21D3091
:102D7000FDF74EFC02214DF21E30FDF749FC6721A4
:102D80004DF21F30FDF744FC02214DF22030FDF7DB
:102D90003FFC84214DF22130FDF73AFC02214DF237
:102DA0002230FDF735FCA4214DF22330FDF730FC35
:102DB00002214DF22430FDF72BFCB7214DF22530D6
:102DC000FDF726FC02214DF22630FDF721FCCF2134
:102DD0004DF22730FDF71CFC02214DF22830FDF7A3
:102DE00017FCDE214DF22930FDF712FC02214DF2D5
:102DF0002A30FDF70DFCF2214DF22B30FDF708FCD7
:102E000002214DF22C30FDF703FCFE214DF22D3056
:102E1000FDF7FEFB03214DF22E30FDF7F9FB1021EB
:102E20004DF22F30FDF7F4FB03214DF23030FDF76A
:102E3000EFFB33214DF23130FDF7EAFB03214DF278
:102E40003230FDF7E5FB6D214DF23330FDF7E0FB4D
:102E500000214FF45440FDF7DBFB332100E07FE31A
:102E60004DF20140FDF7D4FB00214DF20240FDF789
:102E7000CFFB34214DF20340FDF7CAFB00214DF298
:102E80000440FDF7C5FB3A214DF20540FDF7C0FBBC
:102E900000214DF20640FDF7BBFB4A214DF20740F1
:102EA000FDF7B6FB00214DF20840FDF7B1FB5C21B8
:102EB0004DF20940FDF7ACFB00214DF20A40FDF751
:102EC000A7FB81214DF20B40FDF7A2FB00214DF243
:102ED0000C40FDF79DFBA6214DF20D40FDF798FB40
:102EE00000214DF20E40FDF793FBE5214DF20F401E
:102EF000FDF78EFB01214DF21040FDF789FB1321F8
:102F00004DF21140FDF784FB01214DF21240FDF717
:102F10007FFB54214DF21340FDF77AFB01214DF266
:102F20001440FDF775FB82214DF21540FDF770FB53
:102F300001214DF21640FDF76BFBCA214DF21740FF
:102F4000FDF766FB02214DF21840FDF761FB002101
:102F50004DF21940FDF75CFB02214DF21A40FDF7DE
:102F600057FB00E0FFE201214DF21B40FDF750FB53
:102F700002214DF21C40FDF74BFB34214DF21D4068
:102F8000FDF746FB02214DF21E40FDF741FB672194
:102F90004DF21F40FDF73CFB02214DF22040FDF7B2
:102FA00037FB84214DF22140FDF732FB02214DF227
:102FB0002240FDF72DFBA4214DF22340FDF728FB15
:102FC00002214DF22440FDF723FBB7214DF22540AD
:102FD000FDF71EFB02214DF22640FDF719FBCF2124
:102FE0004DF22740FDF714FB02214DF22840FDF77A
:102FF0000FFBDE214DF22940FDF70AFB02214DF2C5
:103000002A40FDF705FBF2214DF22B40FDF700FBB6
:1030100002214DF22C40FDF7FBFAFE214DF22D402E
:10302000FDF7F6FA03214DF22E40FDF7F1FA1021DB
:103030004DF22F40FDF7ECFA03214DF23040FDF741
:10304000E7FA33214DF23140FDF7E2FA03214DF268
:103050003240FDF7DDFA6D214DF23340FDF7D8FA2D
:1030600000214FF45540FDF7D3FA33214DF20150C2
:10307000FDF7CEFA00214DF20250FDF7C9FA3421D6
:103080004DF20350FDF7C4FA00214DF20450FDF754
:10309000BFFA3A214DF20550FDF7BAFA00214DF280
:1030A0000650FDF7B5FA4A214DF20750FDF7B0FA88
:1030B00000214DF20850FDF7ABFA5C214DF20950AA
:1030C000FDF7A6FA00214DF20A50FDF7A1FA812181
:1030D0004DF20B50FDF79CFA00214DF20C50FDF71C
:1030E00097FAA6214DF20D50FDF792FA00214DF20C
:1030F0000E50FDF78DFAE5214DF20F50FDF788FADD
:1031000001214DF21050FDF783FA13214DF21150B9
:10311000FDF77EFA01214DF21250FDF779FA5421A4
:103120004DF21350FDF774FA01214DF21450FDF7E2
:103130006FFA82214DF21550FDF76AFA01214DF226
:103140001650FDF765FACA214DF21750FDF760FAE7
:1031500002214DF21850FDF75BFA00214DF2195093
:10316000FDF756FA02214DF21A50FDF751FA0121EE
:103170004DF21B50FDF74CFA02214DF21C50FDF7A9
:1031800047FA34214DF21D50FDF742FA02214DF26B
:103190001E50FDF73DFA67214DF21F50FDF738FA3A
:1031A00002214DF22050FDF733FA84214DF22150D7
:1031B000FDF72EFA02214DF22250FDF729FAA42143
:1031C0004DF22350FDF724FA02214DF22450FDF771
:1031D0001FFAB7214DF22550FDF71AFA02214DF2E0
:1031E0002650FDF715FACF214DF22750FDF710FAC2
:1031F00002214DF22850FDF70BFADE214DF2295045
:10320000FDF706FA02214DF22A50FDF701FAF221EC
:103210004DF22B50FDF7FCF902214DF22C50FDF739
:10322000F7F9FE214DF22D50FDF7F2F903214DF291
:103230002E50FDF7EDF910214DF22F50FDF7E8F972
:1032400003214DF23050FDF7E3F933214DF23150B7
:10325000FDF7DEF903214DF23250FDF7D9F96D216A
:103260004DF23350FDF7D4F900214FF45640FDF7ED
:10327000CFF933214DF20160FDF7CAF900214DF27B
:103280000260FDF7C5F934214DF20360FDF7C0F986
:1032900000214DF20460FDF7BBF93A214DF20560C3
:1032A000FDF7B6F900214DF20660FDF7B1F94A21AC
:1032B0004DF20760FDF7ACF900214DF20860FDF713
:1032C000A7F95C214DF20960FDF7A2F900214DF24A
:1032D0000A60FDF79DF981214DF20B60FDF798F929
:1032E00000214DF20C60FDF793F9A6214DF20D601F
:1032F000FDF78EF900214DF20E60FDF789F9E52109
:103300004DF20F60FDF784F901214DF21060FDF7D9
:103310007FF913214DF21160FDF77AF901214DF289
:103320001260FDF775F954214DF21360FDF770F945
:1033300001214DF21460FDF76BF982214DF2156009
:10334000FDF766F901214DF21660FDF761F9CA211A
:103350004DF21760FDF75CF902214DF21860FDF7A0
:1033600057F900214DF21960FDF752F902214DF293
:103370001A60FDF74DF901214DF21B60FDF748F988
:1033800002214DF21C60FDF743F934214DF21D601E
:10339000FDF73EF902214DF21E60FDF739F9672174
:1033A0004DF21F60FDF734F902214DF22060FDF768
:1033B0002FF984214DF22160FDF72AF902214DF207
:1033C0002260FDF725F9A4214DF22360FDF720F9D5
:1033D00002214DF22460FDF71BF9B7214DF2256063
:1033E000FDF716F902214DF22660FDF711F9CF2104
:1033F0004DF22760FDF70CF902214DF22860FDF730
:1034000007F9DE214DF22960FDF702F902214DF2A4
:103410002A60FDF7FDF8F2214DF22B60FDF7F8F878
:1034200002214DF22C60FDF7F3F8FE214DF22D60E4
:10343000FDF7EEF803214DF22E60FDF7E9F81021BB
:103440004DF22F60FDF7E4F803214DF23060FDF7F7
:10345000DFF833214DF23160FDF7DAF803214DF248
:103460003260FDF7D5F86D214DF23360FDF7D0F8ED
:1034700055211846FDF7CCF8AA212046FDF7C8F8DB
:1034800052212846FDF7C4F808213046FDF7C0F860
:1034900000213846FDF7BCF8CC214046FDF7B8F8CE
:1034A00000214846FDF7B4F805216046FDF7B0F865
:1034B00070215846FDF7ACF870214BF20170FDF712
:1034C000A7F801214FF43840FDF7A2F803214BF68D
:1034D0000100FDF79DF803214BF60200FDF798F877
:1034E00003214BF60300FDF793F802214FF43C4013
:1034F000FDF78EF800214BF60140FDF789F8002119
:103500004BF60240FDF784F8D0214FF44940FDF717
:103510007FF802214CF60110FDF77AF850214CF6A5
:103520000210FDF775F850214CF60310FDF770F806
:1035300050214CF60410FDF76BF800214FF4545065
:10354000FDF766F855214FF46850FDF761F84FF428
:103550008850FDF73BF8782003F043FE4FF42450E9
:10356000FDF734F8F3E0A0F513414FF480744FF405
:10357000E06940F2022B4FF4274625397ED040F215
:103580000775C91E7BD04FF488774FF41C5608315D
:1035900076D0113975D0A0F5A841083972D0A0F5C0
:1035A000A8514FF4407705396DD0B1F520416BD06B
:1035B000B1F5805169D0A0F58A41313966D0091F33
:1035C0007DD04045CED1E220FDF700F81D20FDF76B
:1035D00009F80220FDF706F80420FDF703F864203F
:1035E00003F0FFFDE020FCF7F1FF0120FCF7FAFFFC
:1035F0000A2003F024FEE020FCF7E8FF0320FCF79C
:10360000F1FF0C2003F01BFE0120FCF7DFFF0A2076
:1036100003F015FEE620FCF7D9FF2F20FCF7E2FFB0
:10362000FF20FCF7DFFFFF20FCF7DCFFB020FCF7FA
:10363000CDFF2020FCF7D6FF0020FCF7D3FF0320AE
:10364000FCF7D0FF40F21F30FCF7CCFF0120FCF765
:10365000C9FF40F2DF10FCF7C5FF0020FCF7C2FFF6
:10366000B420FCF7B3FF0420FCF7BCFF40F21F407E
:10367000FCF7B8FF0020FCF7B5FF08E074E03FE17D
:10368000F7E19DE272E3FDE3FDE3FDE3FDE32E20C0
:10369000FCF7A8FF0020FCF7A5FF0020FCF7A2FF25
:1036A0000020FCF79FFF0020FCF79CFFB620FCF7F2
:1036B0008DFF0220FCF796FF4FF4037000E0E5E376
:1036C000FCF790FF0020FCF78DFF1720FCF78AFF26
:1036D0001520FCF787FF0020FCF784FF0020FCF793
:1036E00081FFF020FCF772FF0320FCF77BFF29200D
:1036F000FCF76CFFD020FCF769FF0020FCF772FF9D
:10370000BE20FCF763FF0520FCF76CFFFE20FCF7F2
:1037100069FF0120FCF766FF0020FCF763FF002033
:10372000FCF760FF0020FCF75DFFB820FCF74EFFC0
:103730000320FCF757FF0120FCF754FFBA20FCF7E9
:1037400045FF0120FCF74EFF6420FDF775FA0020CD
:10375000FDF795FAFE490120C1F8BC025046FDF77D
:103760001BFC21B0BDE8F08F47F6F001E520FCF727
:103770004FFF21460120FCF74BFF49460220FCF792
:1037800047FF41F230010320FCF742FF00210420F3
:10379000FCF73EFF59460820FCF73AFF00210920BC
:1037A000FCF736FF00210A20FCF732FF00210C2035
:1037B000FCF72EFF00210D20FCF72AFF00210F202F
:1037C000FCF726FF00211020FCF722FF0721112023
:1037D000FCF71EFF00211220FCF71AFF0021132026
:1037E000FCF716FF00210720FCF712FF41F2906161
:1037F0001020FCF70DFF40F227211120FCF708FFF5
:103800009D211220FCF704FF4FF4C8511320FCF750
:10381000FFFE25212920FCF7FBFE0D212B20FCF7C4
:10382000F7FE07213020FCF7F3FE40F20331312090
:10383000FCF7EEFE03213220FCF7EAFE40F20621FF
:103840003520FCF7E5FE08213620FCF7E1FE40F2CA
:1038500006413720FCF7DCFE4FF441713820FCF7BD
:10386000D7FE07213920FCF7D3FE40F202613C204D
:10387000FCF7CEFE08213D20FCF7CAFE00215020B7
:10388000FCF7C6FEEF215120FCF7C2FE00215220BA
:10389000FCF7BEFE40F23F115320FCF7B9FE314663
:1038A0006020FCF7B5FE01216120FCF7B1FE00218C
:1038B0006A20FCF7ADFE00218020FCF7A9FE002164
:1038C0008120FCF7A5FE00218220FCF7A1FE00214B
:1038D0008320FCF79DFE00218420FCF799FE002147
:1038E0008520FCF795FE10219020FCF791FE4FF407
:1038F000C0619220FCF78CFE40F233110720FCE3FC
:1039000041F28F01EC20FCF783FE41F23421EF20DD
:10391000FCF77EFE21460120FCF77AFE4946022094
:10392000FCF776FE41F230010320FCF771FE002126
:103930000420FCF76DFE59460820FCF769FE0021C3
:103940000920FCF765FE00210A20FCF761FE012139
:103950000C20FCF75DFE00210D20FCF759FE002134
:103960000F20FCF755FE00211020FCF751FE072127
:103970001120FCF74DFE00211220FCF749FE00212A
:103980001320FCF745FE01210720FCF741FE322001
:1039900003F055FC41F290411020FCF739FE40F253
:1039A00027211120FCF734FE322003F048FC8A2145
:1039B0001220FCF72DFE322003F041FC4FF4D051D1
:1039C0001320FCF725FE06212920FCF721FE0D21FE
:1039D0002B20FCF71DFE322003F031FC00212020BB
:1039E000FCF716FE00212120FCF712FE322003F026
:1039F00026FC00213020FCF70BFE40F20461312050
:103A0000FCF706FE40F205313220FCF701FE0021F2
:103A10003520FCF7FDFD40F609413620FCF7F8FDA6
:103A20004FF401713720FCF7F3FD40F201313820EB
:103A3000FCF7EEFD29463920FCF7EAFD00213C2089
:103A4000FCF7E6FD40F60A213D20FCF7E1FD3220BF
:103A500003F0F5FB00215020FCF7DAFDEF215120A7
:103A6000FCF7D6FD00215220FCF7D2FD40F23F11B9
:103A70004DE100210846FCF7CBFD21460120FCF773
:103A8000C7FD49460220FCF7C3FD41F23001032087
:103A9000FCF7BEFD00210420FCF7BAFD59460820C2
:103AA000FCF7B6FD00210920FCF7B2FD00210A2039
:103AB000FCF7AEFD01210C20FCF7AAFD00210D2032
:103AC000FCF7A6FD00210F20FCF7A2FD322003F039
:103AD000B6FB40F201110720FCF79AFD322003F0FB
:103AE000AEFB4FF486511020FCF792FD0721112008
:103AF000FCF78EFD39461220FCF78AFD4FF4306149
:103B00001320FCF785FD00212920FCF781FD44F2FC
:103B100010012B20FCF77CFD00215020FCF778FDE4
:103B2000EF215120FCF774FD00215220FCF770FDBD
:103B300040F23F115320FCF76BFD31466020FCF74B
:103B400067FD01216120FCF763FD00216A2001E08F
:103B500000804042FCF75CFD00218020FCF758FD0E
:103B600000218120FCF754FD00218220FCF750FD4C
:103B700000218320FCF74CFD00218420FCF748FD48
:103B800000218520FCF744FD10219020FCF740FD2A
:103B900000219220FCF73CFD01219320FCF738FD29
:103BA00039469520FCF734FD00219720FCF730FDC5
:103BB00000219820FCF72CFD40F2731107207EE3D2
:103BC00041F21401E720FCF723FD21460120FCF718
:103BD0001FFD4FF400710220FCF71AFD41F238017D
:103BE0000320FCF715FD59460820FCF711FD0021C4
:103BF0000920FCF70DFD00210A20FCF709FD00213A
:103C00000C20FCF705FD00210D20FCF701FD002133
:103C10000F20FCF7FDFC00211020FCF7F9FC072128
:103C20001120FCF7F5FC00211220FCF7F1FC00212B
:103C30001320FCF7EDFCC82003F001FB41F290617A
:103C40001020FCF7E5FC40F227211120FCF7E0FCF6
:103C5000322003F0F4FA0C211220FCF7D9FC3220B8
:103C600003F0EDFA4FF400611320FCF7D1FC1121B1
:103C70002920FCF7CDFC0B212B20FCF7C9FC3220BE
:103C800003F0DDFA00212020FCF7C2FC40F23F13D4
:103C900019462120FCF7BCFC00213020FCF7B8FCC1
:103CA0004FF4837421463120FCF7B2FC002132200E
:103CB000FCF7AEFC4FF401713520FCF7A9FC41F292
:103CC0000A613620FCF7A4FC29463720FCF7A0FC4B
:103CD00021463820FCF79CFC29463920FCF798FC4B
:103CE00040F202413C20FCF793FC40F60F413D209E
:103CF000FCF78EFC00215020FCF78AFCEF215120BC
:103D0000FCF786FC00215220FCF782FC1946532068
:103D1000FCF77EFC31466020FCF77AFC0121612033
:103D2000FCF776FC00216A20FCF772FC0021802061
:103D3000FCF76EFC00218120FCF76AFC0021822048
:103D4000FCF766FC00218320FCF762FC0021842044
:103D5000FCF75EFC00218520FCF75AFC1021902026
:103D6000FCF756FC4FF4C0619220FDE32146012090
:103D7000FCF74EFC49460220FCF74AFC41F23001B8
:103D80000320FCF745FC00210420FCF741FC40F235
:103D900007210820FCF73CFC00210920FCF738FC37
:103DA00000210A20FCF734FC00210C20FCF730FC39
:103DB00000210D20FCF72CFC00210F20FCF728FC33
:103DC000142003F03CFA41F2B0611020FCF720FC13
:103DD00001211120FCF71CFC01211720FCF718FC25
:103DE0004FF49C711220FCF713FC4FF40061132078
:103DF000FCF70EFC09212920FCF70AFC09212A20E6
:103E0000FCF706FC0021A420FCF702FC0021502056
:103E1000FCF7FEFBEF215120FCF7FAFB00215220BA
:103E2000FCF7F6FB40F23F115320FCF7F1FB314663
:103E30006020FCF7EDFB01216120FCF7E9FB00218C
:103E40006A20FCF7E5FB00218020FCF7E1FB002164
:103E50008120FCF7DDFB00218220FCF7D9FB00214B
:103E60008320FCF7D5FB00218420FCF7D1FB002147
:103E70008520FCF7CDFB13219020FCF7C9FB002126
:103E8000922004E014E01EE11AE2E1E296E3FCF77E
:103E9000BFFB03219320FCF7BBFB39469520FCF7C1
:103EA000B7FB40F273110720FCF7B2FB322006E1AA
:103EB00000210720FCF7ACFB322003F0C0F94FF4DF
:103EC0008E711220FCF7A4FB0121A420FCF7A0FBBB
:103ED0000F210820FCF79CFB08210A20FCF798FB27
:103EE00008210D20FCF794FB29463020FCF790FBBD
:103EF00007213120FCF78CFB40F203613220FCF7F4
:103F000087FB49463320FCF783FB59463420FCF7F6
:103F10007FFB02213520FCF77BFB41F60F71362039
:103F2000FCF776FB29463720FCF772FB002138208E
:103F3000FCF76EFB00213920FCF76AFB29463A208A
:103F4000FCF766FB00213B20FCF762FB07213C20CD
:103F5000FCF75EFB00213D20FCF75AFB322003F00A
:103F60006EF901210720FCF753FB01211720FCF714
:103F70004FFB322003F063F94FF4BD511020FCF7E2
:103F800047FB40F217211120FCF742FB4FF48F71E1
:103F90001220FCF73DFB4FF470611320FCF738FB57
:103FA00000212A20FCF734FB0A212920FCF730FBF2
:103FB0004FF49F711220FCF72BFB00215020FCF7DF
:103FC00027FBEF215120FCF723FB00215220FCF7B7
:103FD0001FFB40F23F115320FCF71AFB31466020D3
:103FE000FCF716FB01216120FCF712FB00216A207F
:103FF000FCF70EFB00218020FCF70AFB002181204A
:10400000FCF706FB00218220FCF702FB0021832045
:10401000FCF7FEFA00218420FCF7FAFA0021852043
:10402000FCF7F6FA13219020FCF7F2FA39469220B9
:10403000FCF7EEFA05219320FCF7EAFA002195201F
:10404000FCF7E6FA00219720FCF7E2FA002198201D
:10405000FCF7DEFA21460120FCF7DAFA4946022095
:10406000FCF7D6FA41F238010320FCF7D1FA00211F
:104070000420FCF7CDFA00210C20FCF7C9FA00213E
:104080000F20FCF7C5FA00212020FCF7C1FA00211F
:104090002120FCF7BDFA21210720FCF7B9FA1420F2
:1040A00003F0CDF861210720FCF7B2FA142003F0E9
:1040B000C6F840F273110720FCF7AAFA142003F0A7
:1040C000BEF8FFF744BB00210846FCF7A1FA002127
:1040D0000846FCF79DFA00210846FCF799FA0021F2
:1040E0000846FCF795FA0121A420FCF791FA142068
:1040F00003F0A5F83146602000E0DCE0FCF788FA28
:104100005D4659460820FCF783FA4FF405713020CC
:10411000FCF77EFA43F215713120FCF779FA40F290
:1041200004613220FCF774FA40F616613320FCF784
:104130006FFA42F211213420FCF76AFA4FF4A851C9
:104140003520FCF765FA48F207513620FCF760FA93
:1041500041F207413720FCF75BFA41F20341382076
:10416000FCF756FA20213920FCF752FA1A21902048
:10417000FCF74EFA00211020FCF74AFA0721112023
:10418000FCF746FA00211220FCF742FA0021132026
:10419000FCF73EFA142003F052F84FF4E6611020C9
:1041A000FCF736FA40F237111120FCF731FA1420EF
:1041B00003F045F84FF4DC711220FCF729FA1420C3
:1041C00003F03DF84FF470611320FCF721FA8021D1
:1041D0002A20FCF71DFA48212920FCF719FA14209F
:1041E00003F02DF821460120FCF712FA494602207F
:1041F000FCF70EFA41F238010320FCF709FA2946D0
:104200000820FCF705FA00210A20FCF701FA00213A
:104210000C20FCF7FDF900210D20FCF7F9F9302105
:104220000E20FCF7F5F900215020FCF7F1F9EF2101
:104230005120FCF7EDF900215220FCF7E9F940F29A
:104240003F115320FCF7E4F931466020FCF7E0F918
:1042500001216120FCF7DCF900216A20FCF7D8F984
:1042600011219020FCF7D4F94FF4C0619220FCF7A3
:10427000CFF940F202419320FCF7CAF902219420C1
:10428000FCF7C6F9142002F0DAFF01210720FCF741
:10429000BFF9142002F0D3FF61210720FCF7B8F921
:1042A00040F273110720FCF7B3F900212020FCF73E
:1042B000AFF900212120FCF7ABF9222100207AE19F
:1042C00000210846FCF7A4F900210846FCF7A0F9F4
:1042D000142002F0B4FF00210846FCF799F90021F0
:1042E0000846FCF795F900210846FCF791F90021F2
:1042F0000846FCF78DF90121A420FCF789F9142068
:1043000002F09DFF31466020FCF782F940F606017D
:104310000820FCF77DF940F2037319463020FCF7C2
:1043200077F901213120FCF773F904213220FCF7E1
:104330006FF94FF481713320FCF76AF93946342064
:10434000FCF766F940F203113520FCF761F91F21F3
:104350003620FCF75DF919463720FCF759F90121A1
:104360003820FCF755F904213920FCF751F91521C3
:104370009020FCF74DF94FF482611020FCF748F9CA
:1043800040F247211120FCF743F94FF4DE7112206F
:10439000FCF73EF94FF460611320FCF739F97820FF
:1043A00002F04DFF21460120FCF732F94FF4007175
:1043B0000220FCF72DF941F230010320FCF728F927
:1043C00008210A20FCF724F900210C20FCF720F931
:1043D00020210E20FCF71CF900210F20FCF718F912
:1043E00000212020FCF714F900212120FCF710F90E
:1043F0003D212A20FCF70CF9142002F020FF2D218A
:104400002920FCF705F900215020FCF701F94DF2B5
:10441000EF015120FCF7FCF800215220FCF7F8F8DE
:1044200040F23F115320FCF7F3F800216120FCF724
:10443000EFF800216A20FCF7EBF839469220FCF7F0
:10444000E7F805219320FCF7E3F82146FFF7B6BB18
:1044500001210020FCF7DCF80A2002F0F0FE41F216
:1044600028611020FCF7D4F80E211220FCF7D0F8B8
:1044700040F639211320FCF7CBF80A2002F0DFFECA
:1044800040211120FCF7C4F850211520FCF7C0F89A
:104490000A2002F0D4FE1E211220FCF7B9F80A20EF
:1044A00002F0CDFE4FF4B1511020FCF7B1F842F606
:1044B00039211320FCF7ACF80A2002F0C0FE214697
:1044C0000120FCF7A5F839460220FCF7A1F841F2DB
:1044D00038010320FCF79CF859460820FCF798F8AF
:1044E00008210A20FCF794F800213020FCF790F80E
:1044F00040F202413120FCF78BF84FF483713220F7
:10450000FCF786F840F203513320FCF781F84FF4B2
:1045100082713420FCF77CF840F201313520FCF741
:1045200077F829463620FCF773F840F2053137203A
:10453000FCF76EF84FF402713820FCF769F840F68A
:104540000B713920FCF764F802214120FCF760F878
:1045500031466020FCF75CF801216120FCF758F837
:104560004FF40471902000E0CAE0FCF751F84FF4DA
:1045700085719220FCF74CF804219320FCF748F851
:104580002146A020FCF744F801210720FCF740F861
:1045900021210720FCF73CF823210720FCF738F8FD
:1045A00033210720FCF734F840F233110720FCF7E1
:1045B0002FF80021A020FCF72BF882E530211520F0
:1045C000FCF726F810219A20FCF722F82021112070
:1045D000FCF71EF843F228411020FCF719F80221DD
:1045E0001220FCF715F841F238011320FCF710F8FF
:1045F000282002F024FE12210846FCF709F82820A2
:1046000002F01DFE43F220411020FCF701F843F2B6
:1046100038011320FBF7FCFF462002F010FE0021BA
:104620003020FBF7F5FF40F202413120FBF7F0FFAD
:1046300040F207313220FBF7EBFF4FF4417133209A
:10464000FBF7E6FF04213420FBF7E2FF40F20141D3
:104650003520FBF7DDFF29463620FBF7D9FF40F276
:1046600005313720FBF7D4FF4FF4C26319463820D9
:10467000FBF7CEFF19463920FBF7CAFF2146012080
:10468000FBF7C6FF39460220FBF7C2FF41F23001BB
:104690000320FBF7BDFF40F608010820FBF7B8FF39
:1046A00008210A20FBF7B4FF31466020FBF7B0FF7A
:1046B00001216120FBF7ACFF4FF49F719020FBF7C5
:1046C000A7FF21469220FBF7A3FF21469320FBF78B
:1046D0009FFF4FF44051A020FBF79AFF1021A32029
:1046E000FBF796FF01210720FBF792FF212107200E
:1046F000FBF78EFF23210720FBF78AFF33210720DA
:10470000FBF786FF40F23311A0E62DE9F843FB4D9D
:104710001F468046AB88089EA3F5D040043802D1DE
:10472000A879012807D0A2EB0800401C85B20C46EE
:104730004FF0D84929E02B880846991A0024AC711B
:104740003A462A24A3EB08036C812B27491E5B1EE3
:10475000AF8189B29BB20096FFF7D7FF0120A87105
:104760006F81AC81BDE8F88321464046FBF778FFB6
:10477000FBF75DFF0020494603E0A1F88060401C84
:1047800080B2A842F9D3641CA4B2BC42ECD9E9E7D8
:104790002DE9F0478246A2EB0A00401C0E4685B286
:1047A000981B401C87B200244FF0D849DDF82080C8
:1047B00015E0301981B25046FBF752FFFBF737FF87
:1047C0000020494607E004FB050338F81320A1F850
:1047D0008020401C80B2A842F5D3641CA4B2BC4225
:1047E000E7D3BDE8F0872DE9FE4F0026A2EB0008D5
:1047F00082465F1A701E35468946B8F1000F02DD09
:104800004FF0010102E003D14FF00001019102E0FD
:10481000C8F100080190002F02DD4FF0010002E016
:1048200003D14FF00000009002E0C7F100070090B4
:104830004046B84501DD044600E03C46601C4FF0B0
:10484000000B029015E01FFA89F11FFA8AF0FCF7BD
:1048500063F946443D44A64202DD0199361B8A4471
:10486000A54202DD00992D1B89440BF101001FFABE
:1048700080FB02998B45E6DDBDE8FE8FF0B51C4656
:1048800015460E4607460B46FFF7ADFF3A46234650
:1048900031461046FFF7A7FF23462A4619463846F9
:1048A000FFF7A1FF2A4623463146BDE8F0401046F7
:1048B00099E72DE9FC4F80460024154603200F465A
:1048C000A0EB450649E0781B81B208EB040A019091
:1048D0001FFA8AF0FCF720F9381B81B208EB0509B2
:1048E00000901FFA89F0FCF717F907EB040B1FFA89
:1048F0008BF11FFA89F0FCF70FF907EB05091FFA96
:1049000089F11FFA8AF0FCF707F9A8EB040A1FFAED
:1049100089F11FFA8AF0FCF7FFF8A8EB05091FFAE6
:104920008BF11FFA89F0FCF7F7F8019881B21FFAB2
:104930008AF0FCF7F1F8009881B21FFA89F0FCF7D1
:10494000EBF8641C002E03DA06EB8406B61D04E0C7
:10495000601B06EB80066D1E0A36AC42B3DDBDE877
:10496000FC8F2DE9F84F82461F460C468B465807B0
:1049700000D0012000EBD700790810FB01F0203AAD
:10498000C0B202F0FF090026009041E00C2F10D0C9
:10499000102F12D0182F3ED1594909EBC90001EB55
:1049A00080004FF00008855D28060AD5554802882A
:1049B0000BE009EB49005449F1E7544901EB0910B8
:1049C000EFE70A9828B94F48428821465046FCF73D
:1049D000AFF86806050E4948641CA4B24088A0429E
:1049E00019D9A4EB0B00B84209D10AF101001FFA52
:1049F00080FA42485C46018851450CD906E008F12E
:104A0000010000F0FF08B8F1080FCDD3761CF6B214
:104A100000988642BAD3BDE8F88F0346012000E033
:104A20005843491EC9B2FBD270472DE9FF4F81B0F0
:104A30000027DDF838B01D46924680463C46B94610
:104A40004FEA5B0627E0281B401EC1B20A20FFF791
:104A5000E4FFBAFBF0F00A21B0FBF1F201FB120017
:104A600027B9691E8C4201DA48B101273030C2B241
:104A700006FB048080B25B46CDF8009006E006FBA2
:104A8000048080B25B462022CDF800900299FFF7A7
:104A900068FF641CE4B2AC42D5D305B0BDE8F08F2A
:104AA0002DE9FF4F81B08046DDF83CA00E984FF015
:104AB00000091F4693464C460AF00105460835E0BA
:104AC000381B401EC1B20A20FFF7A7FFBBFBF0F066
:104AD0000A21B0FBF1F201FB1200B9F1000F05D180
:104AE000791E8C4202DA98B14FF001093030C2B21F
:104AF00006FB048080B200950E9B12E08402002029
:104B00006EF10008140000200AE700087EEB0008A0
:104B10005FEA0A6006FB04800E9B80B2009508D510
:104B200030220299FFF71DFF641CE4B2BC42C7D3D8
:104B3000B3E72022F5E72DE9F84F044600F0FF081F
:104B400010190D46DDE90A761FFA80FA58191FFA86
:104B500080F94FF0000B11E0544502D3E8194446A8
:104B600085B24D450FD23B4629462046CDF800B0D0
:104B7000FFF7F7FE04EB570084B2761C3278A2F1FF
:104B800020005E28E8D946E71CB50121112003F07A
:104B900008F91020009000208DF8040003208DF803
:104BA000050001248DF807406946224802F0D2FC36
:104BB00002208DF80700009469461F4802F0CAFCE5
:104BC0001CBD2DE9F0411D4C1A4E1B4F012508B1AB
:104BD000257001E0207858B11021304602F00BFD1D
:104BE00001280BD00121384602F005FD012805D02F
:104BF0001021304602F0FFFCA0B119E00A2002F0BB
:104C00001EFB002020701021304602F0F4FC012829
:104C100006D00121384602F0EEFC012808D104201C
:104C2000BDE8F0810121384602F0E5FC00B92570AD
:104C30000020F5E7001002400000024018000020AC
:104C400070B5404C05460221204604F0B6F9002814
:104C5000F9D02946204604F083F90121204604F0CA
:104C6000ACF90028F9D0204604F078F9C0B270BD44
:104C70002DE9F043012187B0084603F092F84FF484
:104C800080590121484603F0B4F802278DF81870C6
:104C900000248DF81A4003208DF81900DFF8A88051
:104CA0003826012505968DF81B5005A9404602F0CF
:104CB00051FC05220321404602F0C0FC05220421DC
:104CC000404602F0BBFC05221146404602F0B6FC0D
:104CD0000121484603F0BFF80021484603F0BBF825
:104CE000ADF800404FF48270ADF80200ADF8085006
:104CF0006802ADF80C60ADF80440ADF80A00ADF8FC
:104D00000E4007200F4CADF81000ADF80670694654
:104D1000204604F02BF80121204604F0BBF8FF20C8
:104D2000FFF78EFF07B0BDE8F08301460548028813
:104D300022F03802028002880A430280012104F036
:104D4000A9B80000003001400004024070B5D14D08
:104D50000024C5F8B842902005F52E75FFF770FFC6
:104D60000020FFF76DFF0020FFF76AFF0020FFF72C
:104D700067FFFF20FFF764FF44EA0024FF20FFF7EE
:104D80005FFF20430121296070BD7CB50121022015
:104D900003F007F80121402003F003F84FF48040AE
:104DA000012400908DF8044000208DF806000320B7
:104DB0008DF805008DF807406946B74802F0CAFB38
:104DC0008020B64D00906946284602F0C3FB802142
:104DD000284602F024FCAF48C0F8B842FFF748FF6D
:104DE0000020FFF7A2FFFFF7B1FFAD4908807CBDAF
:104DF00010B5A84C0020C4F8B802052004F52E74A4
:104E0000FFF71EFFFF20FFF71BFF0121216010BDF0
:104E100070B5A04C00210546C4F8B812012004F575
:104E20002E74FFF70DFF2846FFF70AFF01202060D0
:104E300070BD10B5974C0020C4F8B802062004F5E8
:104E40002E74FFF7FDFE0120206010BD10B5914CBF
:104E50000020C4F8B802042004F52E74FFF7F0FE19
:104E60000120206010BD2DE9F0418A4F0646002048
:104E700015460C46C7F8B8020320FFF7E1FEC4F35D
:104E80000740FFF7DDFEC4F30720FFF7D9FEE0B2CD
:104E9000FFF7D6FE002405E0FF20FFF7D1FE3055D6
:104EA000641CA4B2AC42F7D30120C7F8B802BDE835
:104EB000F08110B5FFF79CFFC007FBD110BD2DE9B5
:104EC000F04115460C460646FFF7B3FF714F002030
:104ED000C7F8B8020220FFF7B3FEC4F30740FFF79C
:104EE000AFFEC4F30720FFF7ABFEE0B2FFF7A8FE6A
:104EF000002404E0305DFFF7A3FE641CA4B2AC42C2
:104F0000F8D30120C7F8B802BDE8F041D1E72DE998
:104F1000F0410746C8B2C0F580740E461546A2425D
:104F200000D814464FF48078224631463846FFF7C1
:104F3000C6FFA542BBD0281B2744264485B2444661
:104F4000A542F1D82C46EFE7B1E770B5044601461B
:104F500054A008F0A7FE2403FFF76BFFFFF7A9FF9B
:104F60004C4D0020C5F8B802202005F52E75FFF73E
:104F700067FEC4F30740FFF763FEC4F30720FFF7A3
:104F80005FFEE0B2FFF75CFE01202860BDE87040E4
:104F90008FE72DE9F05FC1F30B06DFF810810F0BEF
:104FA000C6F580548A4681461546A24200D814466A
:104FB00039038B464FF480524046FFF754FF0020E0
:104FC00006E0321818F80210FF2903D1401C80B205
:104FD000A042F6D3A04221D23846FFF7B6FF002008
:104FE00006E019F800208319401C08F8032080B25D
:104FF000A042F6D359464FF480524046FFF787FF50
:10500000A5420FD0281BA144A244002685B24FF42C
:1050100080547F1CA542CBD82C46C9E72246514676
:105020004846EBE7BDE8F09F10B5FFF702FFFFF73A
:1050300040FF184C0020C4F8B802C72004F52E74B5
:10504000FFF7FEFD01202060BDE8104031E710B5FC
:10505000104C0020C4F8B802B92004F52E74FFF7F4
:10506000EFFD01202060BDE81040032002F0B9B838
:1050700010B5084C0020C4F8B802AB2004F52E741B
:10508000FFF7DEFD01202060BDE81040032002F0A4
:10509000A8B800000080404200040240001802400E
:1050A0001A00002066653A25780D0A009202002059
:1050B000FE4900200860091D0860091D0860091DDF
:1050C0000860FA4924310860091D0860091D08605C
:1050D000F64AF74938321160111D08607047002107
:1050E000012803D010B1262108467047F14A5070BC
:1050F000FAE7EE4A121D116821F0FF010143116029
:10510000704710B50446E9483430016811F0450F86
:10511000FBD0042004F045F820B1042004F04AF844
:10512000032010BD012004F03CF820B1012004F060
:1051300041F8012010BDDD4810300068A04201D0C8
:10514000102010BD40F2FF5004F034F8D74814305E
:10515000006800F0080010BD2DE9FC5F0024D64F68
:1051600000944FF4806801944025C7F81080C7E987
:1051700002540E464FF0080B1021C7E900B1A146BA
:10518000384603F089FF1020FFF7BBFF002855D1F8
:10519000C848AA464D460089000438603720C7E950
:1051A000010AC7E90398384603F076FF3720FFF776
:1051B000A8FF002842D1411E07F11400C0E9001BDE
:1051C000302181600221C0E903150121416103F012
:1051D00089FF3320C7F808A0C7E90050C7E9035882
:1051E000384603F059FF3320FFF78BFF050025D128
:1051F000DFF8B882DFF8B4924FF4001B6F4608F175
:10520000800809F1340940F22A6AD9F8000010EA4E
:105210000A0F0BD1584603F0C4FF0028F5D0D8F888
:10522000000047F82400641C022CEED3082003F091
:10523000B8FF28B1082003F0BDFF0420BDE8FC9FA3
:10524000022003F0AEFF20B1022003F0B3FF0220E2
:10525000F4E7202003F0A5FF20B1202003F0AAFFEF
:105260000620EBE74FF40074204603F09AFF20B1CC
:10527000204603F09FFF0720E0E740F2FF5003F0D5
:1052800099FF009800BA7060019800BA3060284613
:10529000D4E72DE9FC41002600963546019600B181
:1052A0000225824814300068800102D50E20BDE836
:1052B000FC81804C6946208980B2FFF74DFF0028B1
:1052C000F5D10198400322D520897B4C00044FF092
:1052D000400820603720C4E901084FF48067204669
:1052E000C4E9036703F0D8FE3720FFF70AFF002860
:1052F000DDD10620C4F80880C4E90050C4E9036782
:10530000204603F0C9FE0620FFF7FBFECFE725206D
:10531000CDE710B56749044600200978032918D065
:1053200019B1012901D0022912D1B4F5805F10D042
:10533000E0B2FFF7AEFF00280AD15C49091D0A68F8
:1053400022F4C0520A600A6822430A600A680A60AE
:1053500010BD272010BD584910B5086007204860CF
:10536000402088600020C8604FF4806008610846D3
:1053700003F092FEBDE810400720C2E62DE9F04799
:105380004C49DFF834A14FF0000C0B7880F8563010
:1053900009890AF12C0AA0F85410DAF800104FF02D
:1053A00001090A0E95090570C2F38305457002F0E4
:1053B000030282700A0CC2700A0A02714171DAF8A3
:1053C0000420110E0C01C2F3074144EA111401F04C
:1053D0000F08C480C2F3072180F80880CC0944720A
:1053E000C1F380148472C1F34014C472C1F3001479
:1053F0000473544680F80DC0A468260EC4F3074514
:10540000C4F3072733B1012B04D0032B02D0022BA6
:1054100030D03EE08907090DD2B241EA820141EA6B
:105420009612C6F3C2010261017506F007014175CB
:1054300069098175C5F38201C175A9074B0F39460A
:1054400043EAD1150576AD1C09FA05F3DE17521CA7
:10545000A2FB03570CFB037302FB063309FA08F2A5
:10546000A5FB0267026503FB027205FB0C22C0E983
:1054700012620EE09106890A41EA06222A4302617D
:10548000521C530BD204C0E912234FF40072394668
:105490000265C1F38012427689064A0EE1B242EA01
:1054A000D11200F81A2F01F07F0107E0002C014013
:1054B000FF07C0001C000020B01200204170DAF885
:1054C0000C20110ECB098370C1F34113C370C1F3DB
:1054D0008203037189070B0FC2F3074143EA91135B
:1054E0004371C1F34013837180F807C001F00101DB
:1054F0000172C2F30721CB094372C1F38013837297
:10550000C1F34013C372C1F300130373C1F38103EA
:10551000437301F003018173C2F34601C1734B462B
:1055200080F81090FE4A11680C0E84740C0CC1F3C4
:10553000072545EA042484820C0651680D0E44EACE
:105540000544C1F3074544EA0524C1F307252C436C
:10555000C0F8164000F81A1F91680C0E44700C0C2D
:10556000C1F30725240644EA0544C9B244EA0124EC
:10557000D16844EA11644460047AC1F3074244EA02
:1055800012140472C1F30724120744EA1252428132
:10559000C1F34601017343736046BDE8F08710B55F
:1055A00000244FF48031DF4809E0026812F0450F13
:1055B00005D009B1500705D5032404200CE0491E8D
:1055C000F3D2F7E7012003F0ECFD18B101242046E7
:1055D00003F0F0FD40F2FF5003F0ECFD204610BD5B
:1055E00070B50646CF480D460024026812F0450FFC
:1055F000FBD0042003F0D5FD20B1042003F0DAFD38
:10560000032070BD012003F0CCFD20B1012003F088
:10561000D1FD012070BDC34824380068B04212D1CA
:1056200040F2FF5003F0C6FDBE482038026812F475
:10563000604F03D0900404D5132070BD100C288057
:1056400007E0500401D5102070BD100401D50F20D3
:1056500070BD204670BD2DE9F84F0120ADF8000067
:1056600003F014FDC8B3B04F387804287ED0AC4C9A
:1056700000253C3C0220E4E80250C0204FF4806644
:1056800084E86100A648083C3C3803F005FDFFF7BC
:1056900086FF002823D1DFF88CA2AAF1200ADAF8CD
:1056A00000109F480AF1040B0160DBF80010416014
:1056B0000BF10401096881609A4914390968C160D5
:1056C00038784FF003084FF0400950B1012808D056
:1056D000062806D0022804D011E0FFE72520BDE807
:1056E000F88F84E820038E48C4E903563C3803F061
:1056F000D3FC69460320FFF773FF0028EFD1387809
:1057000003280ED1BDF80000000484E8010384489A
:10571000C4E903563C3803F0BFFCFFF740FF002804
:10572000DDD13878042823D0BDF80000B86000042B
:1057300001C4092001C4C02084E8610078483C38D5
:1057400003F0AAFCFFF72BFF0028C8D1DAF80010FD
:10575000734810380160DBF8001041607149183956
:10576000096881606F491439096800E000E0C16090
:105770000020B4E710B56B49086810F0450FFBD066
:10578000042003F00EFD20B1042003F013FD0320DC
:1057900010BD40F2FF5003F00DFD002010BD10B50C
:1057A00000244FF480325F4809E0016811F0450F92
:1057B00005D00AB1480705D50324042006E0521E8F
:1057C000F3D2F7E7480603D50024402003F0F2FCAB
:1057D000204610BD70B500254FF4803405E08020D0
:1057E00003F0DFFC08B144B101E0641EF7D240F2DF
:1057F000FF5003F0DFFC284670BD032070BD2DE98B
:10580000F05F00274648762154383E460175076010
:1058100047608760C7603C463D46B946B846076169
:1058200003F010FC032003F02DFC3E4830380168E3
:1058300041F480710160DFF8E8A04FF4806BAAF1B9
:105840003C0A3748CAF80080CAF80480CAF80880C1
:10585000CAE9038B3C3803F01FFCFFF7BBFF28B1FC
:105860007F1CFFB24A2FECD3BDE8F09F4FF4D570F8
:10587000CAF8000008205746CAF804004020C7E9CB
:1058800002080001CAF8100025483C3803F004FC67
:10589000FFF785FF20B9244901204FF080490870A7
:1058A000BA46384641463722402780E88600C0F88D
:1058B0000C801B483901C3463C38CAF8101003F06D
:1058C000EBFB3720FFF71DFC4FF6FF7880B3564601
:1058D000DFF85090BA464FF4806B0127A9F12009F8
:1058E0003DB354E055463720C5E900B04FF4806819
:1058F000CAF810800A48C5E9027B5E463C3803F0CE
:10590000CBFB3720FFF7FDFB0028ADD1074949EA63
:10591000010028602920C5E90107C5E9036809E0FD
:10592000EC120020342C01401C00002000001080EC
:105930000BE02AE0FA4803F0AFFBFFF71BFF00285B
:1059400092D1F8490E68F50F641C1DB94FF6FF712E
:105950008C42C7D34FF6FF718C421AD216F0804F9B
:1059600082D0022218E0F04886E881040020C6E9CF
:10597000030BEB4803F090FBFFF7FCFE0028C4D1BB
:10598000D9F80010CD0F641CAAE74445EBD3444579
:1059900001D31B2068E70322E4490A7064E72DE97C
:1059A000FE4300250121E24802F0FBF90121CE026D
:1059B000304602F01EFA0121304602F04CFA4FF454
:1059C000F850009002208DF804008DF805000024A6
:1059D000DFF860938DF8064001278DF8077069465F
:1059E000484601F0B7FD0420DFF84C83009069467B
:1059F000404601F0AFFD0C220821484601F01EFE92
:105A00000C220921484601F019FE0C220A214846C1
:105A100001F014FE0C220B21484601F00FFE0C226F
:105A20001146484601F00AFE0C220221404601F0D0
:105A300005FE0021304602F00EFAFFF739FB312057
:105A40008DF808008DF809408DF80A408DF80B702C
:105A500002A801F0C0FCFFF7D2FEB14C503480B96F
:105A6000FFF7F9FD68B92046FFF788FC48B9B4F89C
:105A700054000004FFF76FFC18B93046FFF749FCEB
:105A800018B1AA49097803290BD194F8560008B136
:105A9000012800D102252846FFF72BFB0020FFF745
:105AA0001EFBBDE8FE8310B5002003F0EBFA0020DA
:105AB00010BD70B5A14E90B015460446304603F0B7
:105AC00096FC0028FAD1304603F08CFB4FF00060C2
:105AD0000090944801A96C3081E8310000204FF417
