:020000040800F2
:100000003807002029020008D1060008C9060008A8
:10001000CD060008F10300083B0C000800000000BA
:10002000000000000000000000000000B107000810
:10003000F5030008000000004D070008090900084A
:10004000430200084302000843020008430200087C
:100050004302000843020008F903000849040008AD
:1000600099040008E904000843020008430200085C
:10007000430200084302000843020008430200084C
:10008000430200084302000843020008430200083C
:10009000430200084302000843020008430200082C
:1000A000430200084302000843020008430200081C
:1000B000430200084302000843020008430200080C
:1000C00043020008430200084302000843020008FC
:1000D00043020008550B00084302000843020008D1
:1000E00043020008430200084302000843020008DC
:1000F00043020008430200084302000843020008CC
:1001000043020008430200084302000843020008BB
:1001100043020008430200084302000843020008AB
:10012000430200084302000843020008430200089B
:10013000430200084302000843020008430200088B
:10014000430200084302000843020008430200087B
:10015000430200084302000843020008430200086B
:10016000430200084302000843020008430200085B
:10017000430200084302000843020008430200084B
:10018000430200084302000800F002F800F03CF8C7
:100190000AA090E8000C82448344AAF10107DA45E2
:1001A00001D100F031F8AFF2090EBAE80F0013F0F8
:1001B000010F18BFFB1A43F0010318471C0E000083
:1001C0003C0E0000103A24BF78C878C1FAD8520714
:1001D00024BF30C830C144BF04680C6070470000C1
:1001E0000023002400250026103A28BF78C1FBD840
:1001F000520728BF30C148BF0B6070471FB500F0E1
:10020000E5FE1FBD10B510BD00F033F81146FFF735
:10021000F5FF00F0EBFD00F051F803B4FFF7F2FF3B
:1002200003BC00F00CFD0000094880470948004766
:10023000FEE7FEE7FEE7FEE7FEE7FEE7FEE7FEE796
:10024000FEE7FEE704480549054A064B70470000F3
:100250000D09000889010008380100203807002036
:1002600038030020380300207047704770477047FC
:100270007047754600F028F8AE46050069465346BB
:1002800020F00700854618B020B5FFF7DBFFBDE87A
:1002900020404FF000064FF000074FF000084FF0ED
:1002A000000B21F00701AC46ACE8C009ACE8C0097E
:1002B000ACE8C009ACE8C0098D4670470446AFF30E
:1002C00000802046FFF7A9FF00487047D4000020B7
:1002D00000B585B00121880300F05AFA01212020E1
:1002E00000F036FA0121102000F032FA4FF480704D
:1002F000039001208DF8100000208DF812000320DB
:100300008DF8110002208DF8130003A9364800F083
:1003100063F94FF48071344800F0D2F90F20039054
:1003200000208DF8100002208DF8130003A92F483B
:1003300000F052F90021042000F03CFA01210420D1
:1003400000F038FA0221042000F034FA03210420DE
:1003500000F030FA0F20009000208DF804000C20EF
:100360008DF8050001208DF80600684600F0EAF8D7
:1003700006208DF8080000208DF809008DF80A008D
:1003800001208DF80B0002A800F0A4F907208DF8D9
:10039000080000208DF8090001208DF80A008DF872
:1003A0000B0002A800F096F908208DF80800002044
:1003B0008DF8090002208DF80A0001208DF80B004D
:1003C00002A800F087F909208DF8080000208DF8B8
:1003D000090003208DF80A0001208DF80B0002A807
:1003E00000F078F905B000BD001402400010024092
:1003F00000BFFEE77047000010B50121104800F073
:1004000056F9C0B9322000F03BFC01210C4800F045
:100410004EF980B94FF480710A4800F053F94FF457
:10042000967000F02DFC4FF48071064800F048F9FA
:100430000A2000F025FC012000F07EF810BD00002D
:10044000001002400014024010B50221104800F0D4
:100450002EF9C0B9322000F013FC02210C4800F044
:1004600026F980B94FF480710A4800F02BF94FF457
:10047000967000F005FC4FF48071064800F020F9FA
:100480000A2000F0FDFB022000F056F810BD00002D
:10049000001002400014024010B50421104800F082
:1004A00006F9C0B9322000F0EBFB04210C4800F043
:1004B000FEF880B94FF480710A4800F003F94FF458
:1004C000967000F0DDFB4FF48071064800F0F8F8FC
:1004D0000A2000F0D5FB042000F02EF810BD00002B
:1004E000001002400014024010B50821104800F02E
:1004F000DEF8C0B9322000F0C3FB08210C4800F040
:10050000D6F880B94FF480710A4800F0DBF84FF458
:10051000967000F0B5FB4FF48071064800F0D0F8FB
:100520000A2000F0ADFB082000F006F810BD000026
:1005300000100240001402400149086070470000AA
:10054000143C0140002123498279002A3AD00A460E
:10055000126803689A430B461A600A1D1268036802
:100560009A430B1D1A60027911440A6803681A4302
:100570000A60184A0832126803689A43154B083318
:100580001A601A1D126803689A43124B0C331A60E2
:100590004279102A0ED11A1F126803681A430D4BB4
:1005A00008331A601A1D126803681A43094B0C338A
:1005B0001A600DE00749427911440A6803681A433A
:1005C0000A6005E0027911440A6803689A430A60E8
:1005D00070470000003C0140F0B50A4600210023AE
:1005E000002400BF3DE0012505FA01F3156805EA86
:1005F00003049C4234D105684F000326BE40B54336
:10060000056015794E00B5400668354305601579DB
:10061000012D02D01579022D16D185684F000326D1
:10062000BE40B543856055794E00B5408668354378
:100630008560456801268E40B543456045689679DA
:100640008E40B6B235434560C5684F000326BE40B4
:10065000B543C560D5794E00B540C6683543C56021
:10066000491C1029BFD3F0BDF0B5002300244D076D
:10067000ED0E02FA05F3CE1000F1200555F82650D4
:100680004E07F70E0F26BE40B543CF1000F12006EF
:1006900046F82750CE1000F1200555F8265045EABF
:1006A0000304CE1000F1200545F82640F0BD0246B7
:1006B000002013690B400BB1012000E000207047BF
:1006C000418370470183704700BFFEE700BFFEE72C
:1006D0007047000070B5002100230F22C4781CB3BE
:1006E000174C246804F4E064C4F5E064C4F3072103
:1006F000C1F10404E3B20A4144789C40E1B2847839
:10070000144021430C07210E0E4C057861550478E6
:1007100004F01F050124AC4005786D11AD0005F112
:10072000E025C5F8004109E0047804F01F05012424
:10073000AC40054D0678761145F8264070BD0000A6
:100740000CED00E000E400E080E100E07047000014
:1007500029B1064A12680243044B1A6004E0034AB6
:1007600012688243014B1A60704700003038024023
:1007700029B1064A12680243044B1A6004E0034A96
:1007800012688243014B1A607047000040380240F3
:1007900029B1064A12680243044B1A6004E0034A76
:1007A00012688243014B1A607047000044380240CF
:1007B0007047000030B500228B071C0F0F2303FA8F
:1007C00004F20B4B8C1053F824309343084C8D10DB
:1007D00044F8253023468C1053F824308C07240F1E
:1007E00000FA04F42343024C8D1044F8253030BD48
:1007F000083801400CB50020019000903448006892
:1008000040F480303249086000BF3148006800F48D
:10081000003000900198401C0190009818B9019890
:10082000B0F5A04FF1D12A48006800F4003010B1B3
:100830000120009001E0002000900098012846D19E
:1008400023484030006840F0805021494031086022
:100850002048006840F440401E4908601C480830A9
:1008600000681B49083108600846006840F40040F1
:1008700008600846006840F4A05008601648091F48
:100880000860081F006840F08070091F086000BF02
:100890000F48006800F000700028F9D040F20570A1
:1008A0000E4908600A480830006820F00300084933
:1008B000083108600846006840F00200086000BF88
:1008C00003480830006800F00C000828F8D10CBD7F
:1008D000003802400070004008544007003C0240CD
:1008E000042808D14FF0E021096941F004014FF0DC
:1008F000E022116107E04FF0E021096921F00401D5
:100900004FF0E022116170477047000010B51548A4
:10091000006840F47000134908601348006840F014
:1009200001001149086000200F49083108600E4895
:1009300000680E4908400C4908600D48091D086010
:10094000081F006820F48020091F08600020064965
:100950000C310860FFF74EFF4FF00060014980390D
:10096000086010BD88ED00E000380240FFFFF6FE91
:100970001030002421B1028842F08002028004E09D
:1009800002884FF67F731A400280704721B10288B7
:1009900042F00102028004E002884FF6FE731A4022
:1009A0000280704770B5002400220023058C4FF6AA
:1009B000FE7635400584028C8388048B4FF68F7554
:1009C0002C40B51E2C400D882C43751E2A408D8965
:1009D0002A434D882A43104DA84202D00F4DA84209
:1009E00013D14FF6F7752A40CD892A434FF6FB7590
:1009F0002A408D882A434FF6FF652B404FF6FF555E
:100A00002B400D8A2B434D8A2B43838004838D68B2
:100A10004563028470BD00000000014000040140F5
:100A20000A460021018B4FF6F773194011430183E9
:100A3000704741637047000000220288184B9842BB
:100A40000ED0184B98420BD0B0F1804F08D0164B07
:100A5000984205D0154B984202D0154B984204D1CC
:100A60004FF68F731A404B881A43124B984207D0A7
:100A7000114B984204D04FF6FF431A400B891A439A
:100A800002804B68C3620B880385054B984202D0F5
:100A9000044B984201D18B7A0386012383827047ED
:100AA0000000014000040140000400400008004034
:100AB000000C0040001000400014004070B50446D7
:100AC0000D4610210F48FFF7FBFD4FF480610D48E4
:100AD000FFF7F8FD00260EE004210A48FFF7F2FDBB
:100AE000284600F0E9F804210648FFF7E9FD28460A
:100AF00000F0E2F8761CA642EEDB10210148FFF779
:100B0000E1FD70BD0014024070B504460D46102191
:100B10000F48FFF7D5FD4FF480610D48FFF7D0FD7A
:100B200000260EE004210A48FFF7CCFD284600F01D
:100B3000C3F804210648FFF7C3FD284600F0BCF8BF
:100B4000761CA642EEDB10210148FFF7BBFD70BD0D
:100B50000014024010B540F225511D4800F03EF847
:100B600010B31B4800F064F8C4B21A48008800F4BF
:100B70000040C8B91748008800F4804060B10A2CD2
:100B800003D000201349088020E01248008840F478
:100B900000401049088019E00D2C06D10D4800884E
:100BA00040F480400B49088010E00A480088C0F3F8
:100BB0000D0009490C5407480088401C054908806D
:100BC00008460088C72801DD0020088010BD00000D
:100BD00000100140080000200C00002070B5024603
:100BE000002400230025002040F66A16B14200D1FF
:100BF00000BFC1F3421501F01F03012606FA03F3FB
:100C0000012D02D19689334006E0022D02D1168AC9
:100C1000334001E0968A33400C12012606FA04F4B0
:100C20001688344013B10CB1012000E0002070BDE3
:100C300001468888C0F30800704700BFFEE7014600
:100C400000BF704710B504466FF00400FFF748FE80
:100C5000E11704EB5171C1F3C701074A1170104647
:100C6000007800EB4001C1EBC0104FF6FF7101EAC4
:100C7000C0000249088010BD0000002002000020D2
:100C800070B504464FF4077094FBF0F0C6B24FF411
:100C9000077094FBF0F100FB114085B205E04FF4C2
:100CA000077000F02FF8701EC6B2002EF7D115B1F4
:100CB000284600F027F870BD0146114A12784A43D1
:100CC0004FF0E0235A6100229A611A46126942F0FD
:100CD00001021A6100BF4FF0E022106900F001022A
:100CE0001AB100F48032002AF5D04FF0E0221269E8
:100CF00022F001024FF0E0231A6100229A6170474E
:100D0000000000200146114A12884A434FF0E023B8
:100D10005A6100229A611A46126942F001021A6170
:100D200000BF4FF0E022106900F001021AB100F498
:100D30008032002AF5D04FF0E022126922F0010241
:100D40004FF0E0231A6100229A61704702000020F0
:100D500010B54FF400411148FFF7A9FC012800D15C
:100D600010BD4FF480510D48FFF7A1FC012801D1BF
:100D70000220F5E74FF400510848FFF798FC0128DE
:100D800001D10320ECE74FF480410448FFF78FFCCA
:100D9000012801D10420E3E70020E1E7001402402C
:100DA0001CB501212020FFF7D3FC40F21440009035
:100DB00001208DF8040000208DF8060003208DF836
:100DC000050069460848FFF707FC4FF470400090A3
:100DD00000208DF8040002208DF8070069460248C3
:100DE000FFF7FAFB1CBD0000001402400024A820FD
:100DF000FFF728FF532144F6206000F097F8FFF733
:100E000067FAFFF7CDFF10214648FFF75BFC87E04C
:100E100004E0FFF79DFF84B204B100E0F9E700BFF2
:100E2000012C06D0022C18D0032C36D0042C75D1FE
:100E300053E044F27C713C48FFF7FBFD40F2DC508C
:100E4000FFF71EFF44F611113748FFF7F2FD4FF48C
:100E5000FA60FFF715FF002461E04FF416714FF4BC
:100E60004870FFF72BFE44F27C712F48FFF7E1FD3D
:100E70004FF49660FFF704FF4FF416714FF448707B
:100E8000FFF742FE44F611112748FFF7D2FD4FF459
:100E9000FA60FFF7F5FE002441E04FF416714FF4BD
:100EA000C860FFF70BFE44F27C711F48FFF7C1FDDD
:100EB00040F2DC50FFF7E4FE4FF416714FF4C860C7
:100EC000FFF722FE44F611111748FFF7B2FD4FF469
:100ED000FA60FFF7D5FE002421E04FF416714FF4BD
:100EE0004870FFF711FE44F27C710F48FFF7A1FD37
:100EF00040F2DC50FFF7C4FE4FF416714FF4487017
:100F0000FFF7DCFD44F611110748FFF792FD4FF49F
:100F1000FA60FFF7B5FE002401E0FFE700BF00BF65
:100F200076E70000001402400020004030B58BB08E
:100F300004460D4601212020FFF70AFC012108028A
:100F4000FFF716FC092211461E48FFF78DFB4FF4F0
:100F50000070099002208DF8280003208DF82900E8
:100F600000208DF82A0001208DF82B0009A91548D2
:100F7000FFF732FBA8B2ADF818000020ADF81A0058
:100F80000794ADF8200006A90F48FFF755FD602033
:100F9000ADF804000120ADF806000220ADF8100005
:100FA00001A90948FFF7FEFC08210748FFF738FDB3
:100FB00001210548FFF7DEFC01210348FFF7E6FCAD
:100FC0000BB030BD00140240002000404FF04070D4
:100FD000E1EE100A70470000F80F00080000002042
:100FE0000C000000C4010008041000080C000020E0
:100FF0002C070000E00100080000000000000000D5
:0410000000000000EC
:040000050800018965
:00000001FF
